{
  "abi": [
    {
      "inputs": [],
      "stateMutability": "nonpayable",
      "type": "constructor"
    },
    {
      "inputs": [],
      "name": "AlreadyInitialized",
      "type": "error"
    },
    {
      "inputs": [
        {
          "internalType": "address",
          "name": "sender",
          "type": "address"
        },
        {
          "internalType": "uint256",
          "name": "tokenId",
          "type": "uint256"
        },
        {
          "internalType": "address",
          "name": "owner",
          "type": "address"
        }
      ],
      "name": "ERC721IncorrectOwner",
      "type": "error"
    },
    {
      "inputs": [
        {
          "internalType": "address",
          "name": "operator",
          "type": "address"
        },
        {
          "internalType": "uint256",
          "name": "tokenId",
          "type": "uint256"
        }
      ],
      "name": "ERC721InsufficientApproval",
      "type": "error"
    },
    {
      "inputs": [
        {
          "internalType": "address",
          "name": "approver",
          "type": "address"
        }
      ],
      "name": "ERC721InvalidApprover",
      "type": "error"
    },
    {
      "inputs": [
        {
          "internalType": "address",
          "name": "operator",
          "type": "address"
        }
      ],
      "name": "ERC721InvalidOperator",
      "type": "error"
    },
    {
      "inputs": [
        {
          "internalType": "address",
          "name": "owner",
          "type": "address"
        }
      ],
      "name": "ERC721InvalidOwner",
      "type": "error"
    },
    {
      "inputs": [
        {
          "internalType": "address",
          "name": "receiver",
          "type": "address"
        }
      ],
      "name": "ERC721InvalidReceiver",
      "type": "error"
    },
    {
      "inputs": [
        {
          "internalType": "address",
          "name": "sender",
          "type": "address"
        }
      ],
      "name": "ERC721InvalidSender",
      "type": "error"
    },
    {
      "inputs": [
        {
          "internalType": "uint256",
          "name": "tokenId",
          "type": "uint256"
        }
      ],
      "name": "ERC721NonexistentToken",
      "type": "error"
    },
    {
      "inputs": [],
      "name": "NotInitializing",
      "type": "error"
    },
    {
      "anonymous": false,
      "inputs": [
        {
          "indexed": true,
          "internalType": "address",
          "name": "owner",
          "type": "address"
        },
        {
          "indexed": true,
          "internalType": "address",
          "name": "approved",
          "type": "address"
        },
        {
          "indexed": true,
          "internalType": "uint256",
          "name": "tokenId",
          "type": "uint256"
        }
      ],
      "name": "Approval",
      "type": "event"
    },
    {
      "anonymous": false,
      "inputs": [
        {
          "indexed": true,
          "internalType": "address",
          "name": "owner",
          "type": "address"
        },
        {
          "indexed": true,
          "internalType": "address",
          "name": "operator",
          "type": "address"
        },
        {
          "indexed": false,
          "internalType": "bool",
          "name": "approved",
          "type": "bool"
        }
      ],
      "name": "ApprovalForAll",
      "type": "event"
    },
    {
      "anonymous": false,
      "inputs": [
        {
          "indexed": false,
          "internalType": "uint64",
          "name": "version",
          "type": "uint64"
        }
      ],
      "name": "Initialized",
      "type": "event"
    },
    {
      "anonymous": false,
      "inputs": [
        {
          "indexed": true,
          "internalType": "address",
          "name": "from",
          "type": "address"
        },
        {
          "indexed": true,
          "internalType": "address",
          "name": "to",
          "type": "address"
        },
        {
          "indexed": true,
          "internalType": "uint256",
          "name": "tokenId",
          "type": "uint256"
        }
      ],
      "name": "Transfer",
      "type": "event"
    },
    {
      "inputs": [],
      "name": "accountImplementation",
      "outputs": [
        {
          "internalType": "address",
          "name": "",
          "type": "address"
        }
      ],
      "stateMutability": "view",
      "type": "function"
    },
    {
      "inputs": [
        {
          "internalType": "address",
          "name": "_admin",
          "type": "address"
        }
      ],
      "name": "addAdmin",
      "outputs": [],
      "stateMutability": "nonpayable",
      "type": "function"
    },
    {
      "inputs": [
        {
          "internalType": "address",
          "name": "to",
          "type": "address"
        },
        {
          "internalType": "uint256",
          "name": "tokenId",
          "type": "uint256"
        }
      ],
      "name": "approve",
      "outputs": [],
      "stateMutability": "nonpayable",
      "type": "function"
    },
    {
      "inputs": [
        {
          "internalType": "address",
          "name": "owner",
          "type": "address"
        }
      ],
      "name": "balanceOf",
      "outputs": [
        {
          "internalType": "uint256",
          "name": "",
          "type": "uint256"
        }
      ],
      "stateMutability": "view",
      "type": "function"
    },
    {
      "inputs": [
        {
          "internalType": "uint256",
          "name": "tokenId",
          "type": "uint256"
        }
      ],
      "name": "burn",
      "outputs": [],
      "stateMutability": "nonpayable",
      "type": "function"
    },
    {
      "inputs": [
        {
          "internalType": "string",
          "name": "tierId",
          "type": "string"
        },
        {
          "internalType": "uint128",
          "name": "duration",
          "type": "uint128"
        },
        {
          "internalType": "bool",
          "name": "isOpen",
          "type": "bool"
        }
      ],
      "name": "createMembershipTier",
      "outputs": [],
      "stateMutability": "nonpayable",
      "type": "function"
    },
    {
      "inputs": [
        {
          "internalType": "string[]",
          "name": "tierIds",
          "type": "string[]"
        },
        {
          "internalType": "uint128[]",
          "name": "durations",
          "type": "uint128[]"
        },
        {
          "internalType": "bool[]",
          "name": "isOpens",
          "type": "bool[]"
        }
      ],
      "name": "createMembershipTiers",
      "outputs": [],
      "stateMutability": "nonpayable",
      "type": "function"
    },
    {
      "inputs": [
        {
          "internalType": "uint256",
          "name": "tokenId",
          "type": "uint256"
        }
      ],
      "name": "getApproved",
      "outputs": [
        {
          "internalType": "address",
          "name": "",
          "type": "address"
        }
      ],
      "stateMutability": "view",
      "type": "function"
    },
    {
      "inputs": [
        {
          "internalType": "uint8",
          "name": "tierIndex",
          "type": "uint8"
        }
      ],
      "name": "getMembershipTierDetails",
      "outputs": [
        {
          "components": [
            {
              "internalType": "string",
              "name": "tierId",
              "type": "string"
            },
            {
              "internalType": "uint128",
              "name": "duration",
              "type": "uint128"
            },
            {
              "internalType": "bool",
              "name": "isOpen",
              "type": "bool"
            }
          ],
          "internalType": "struct TronicMembership.MembershipTier",
          "name": "",
          "type": "tuple"
        }
      ],
      "stateMutability": "view",
      "type": "function"
    },
    {
      "inputs": [
        {
          "internalType": "uint8",
          "name": "tierIndex",
          "type": "uint8"
        }
      ],
      "name": "getMembershipTierId",
      "outputs": [
        {
          "internalType": "string",
          "name": "",
          "type": "string"
        }
      ],
      "stateMutability": "view",
      "type": "function"
    },
    {
      "inputs": [
        {
          "internalType": "uint256",
          "name": "tokenId",
          "type": "uint256"
        }
      ],
      "name": "getTBAccount",
      "outputs": [
        {
          "internalType": "address",
          "name": "",
          "type": "address"
        }
      ],
      "stateMutability": "view",
      "type": "function"
    },
    {
      "inputs": [
        {
          "internalType": "string",
          "name": "tierId",
          "type": "string"
        }
      ],
      "name": "getTierIndexByTierId",
      "outputs": [
        {
          "internalType": "uint8",
          "name": "",
          "type": "uint8"
        }
      ],
      "stateMutability": "view",
      "type": "function"
    },
    {
      "inputs": [
        {
          "internalType": "uint256",
          "name": "tokenId",
          "type": "uint256"
        }
      ],
      "name": "getTokenMembership",
      "outputs": [
        {
          "components": [
            {
              "internalType": "uint8",
              "name": "tierIndex",
              "type": "uint8"
            },
            {
              "internalType": "uint128",
              "name": "timestamp",
              "type": "uint128"
            }
          ],
          "internalType": "struct TronicMembership.TokenMembership",
          "name": "",
          "type": "tuple"
        }
      ],
      "stateMutability": "view",
      "type": "function"
    },
    {
      "inputs": [
        {
          "internalType": "address payable",
          "name": "_accountImplementation",
          "type": "address"
        },
        {
          "internalType": "address",
          "name": "_registry",
          "type": "address"
        },
        {
          "internalType": "string",
          "name": "name_",
          "type": "string"
        },
        {
          "internalType": "string",
          "name": "symbol_",
          "type": "string"
        },
        {
          "internalType": "string",
          "name": "uri",
          "type": "string"
        },
        {
          "internalType": "uint8",
          "name": "_maxMembershipTiers",
          "type": "uint8"
        },
        {
          "internalType": "uint256",
          "name": "_maxSupply",
          "type": "uint256"
        },
        {
          "internalType": "bool",
          "name": "_isElastic",
          "type": "bool"
        },
        {
          "internalType": "bool",
          "name": "_isBound",
          "type": "bool"
        },
        {
          "internalType": "address",
          "name": "tronicAdmin",
          "type": "address"
        }
      ],
      "name": "initialize",
      "outputs": [],
      "stateMutability": "nonpayable",
      "type": "function"
    },
    {
      "inputs": [
        {
          "internalType": "address",
          "name": "_admin",
          "type": "address"
        }
      ],
      "name": "isAdmin",
      "outputs": [
        {
          "internalType": "bool",
          "name": "",
          "type": "bool"
        }
      ],
      "stateMutability": "view",
      "type": "function"
    },
    {
      "inputs": [
        {
          "internalType": "address",
          "name": "owner",
          "type": "address"
        },
        {
          "internalType": "address",
          "name": "operator",
          "type": "address"
        }
      ],
      "name": "isApprovedForAll",
      "outputs": [
        {
          "internalType": "bool",
          "name": "",
          "type": "bool"
        }
      ],
      "stateMutability": "view",
      "type": "function"
    },
    {
      "inputs": [],
      "name": "isBound",
      "outputs": [
        {
          "internalType": "bool",
          "name": "",
          "type": "bool"
        }
      ],
      "stateMutability": "view",
      "type": "function"
    },
    {
      "inputs": [],
      "name": "isElastic",
      "outputs": [
        {
          "internalType": "bool",
          "name": "",
          "type": "bool"
        }
      ],
      "stateMutability": "view",
      "type": "function"
    },
    {
      "inputs": [
        {
          "internalType": "uint256",
          "name": "tokenId",
          "type": "uint256"
        }
      ],
      "name": "isValid",
      "outputs": [
        {
          "internalType": "bool",
          "name": "",
          "type": "bool"
        }
      ],
      "stateMutability": "view",
      "type": "function"
    },
    {
      "inputs": [],
      "name": "maxSupply",
      "outputs": [
        {
          "internalType": "uint256",
          "name": "",
          "type": "uint256"
        }
      ],
      "stateMutability": "view",
      "type": "function"
    },
    {
      "inputs": [
        {
          "internalType": "address",
          "name": "to",
          "type": "address"
        }
      ],
      "name": "mint",
      "outputs": [
        {
          "internalType": "address payable",
          "name": "tbaAccount",
          "type": "address"
        },
        {
          "internalType": "uint256",
          "name": "",
          "type": "uint256"
        }
      ],
      "stateMutability": "nonpayable",
      "type": "function"
    },
    {
      "inputs": [],
      "name": "name",
      "outputs": [
        {
          "internalType": "string",
          "name": "",
          "type": "string"
        }
      ],
      "stateMutability": "view",
      "type": "function"
    },
    {
      "inputs": [],
      "name": "owner",
      "outputs": [
        {
          "internalType": "address",
          "name": "",
          "type": "address"
        }
      ],
      "stateMutability": "view",
      "type": "function"
    },
    {
      "inputs": [
        {
          "internalType": "uint256",
          "name": "tokenId",
          "type": "uint256"
        }
      ],
      "name": "ownerOf",
      "outputs": [
        {
          "internalType": "address",
          "name": "",
          "type": "address"
        }
      ],
      "stateMutability": "view",
      "type": "function"
    },
    {
      "inputs": [],
      "name": "registry",
      "outputs": [
        {
          "internalType": "contract IERC6551Registry",
          "name": "",
          "type": "address"
        }
      ],
      "stateMutability": "view",
      "type": "function"
    },
    {
      "inputs": [
        {
          "internalType": "address",
          "name": "_admin",
          "type": "address"
        }
      ],
      "name": "removeAdmin",
      "outputs": [],
      "stateMutability": "nonpayable",
      "type": "function"
    },
    {
      "inputs": [
        {
          "internalType": "address",
          "name": "from",
          "type": "address"
        },
        {
          "internalType": "address",
          "name": "to",
          "type": "address"
        },
        {
          "internalType": "uint256",
          "name": "tokenId",
          "type": "uint256"
        }
      ],
      "name": "safeTransferFrom",
      "outputs": [],
      "stateMutability": "nonpayable",
      "type": "function"
    },
    {
      "inputs": [
        {
          "internalType": "address",
          "name": "from",
          "type": "address"
        },
        {
          "internalType": "address",
          "name": "to",
          "type": "address"
        },
        {
          "internalType": "uint256",
          "name": "tokenId",
          "type": "uint256"
        },
        {
          "internalType": "bytes",
          "name": "_data",
          "type": "bytes"
        }
      ],
      "name": "safeTransferFrom",
      "outputs": [],
      "stateMutability": "nonpayable",
      "type": "function"
    },
    {
      "inputs": [
        {
          "internalType": "address",
          "name": "operator",
          "type": "address"
        },
        {
          "internalType": "bool",
          "name": "approved",
          "type": "bool"
        }
      ],
      "name": "setApprovalForAll",
      "outputs": [],
      "stateMutability": "nonpayable",
      "type": "function"
    },
    {
      "inputs": [
        {
          "internalType": "string",
          "name": "uri",
          "type": "string"
        }
      ],
      "name": "setBaseURI",
      "outputs": [],
      "stateMutability": "nonpayable",
      "type": "function"
    },
    {
      "inputs": [
        {
          "internalType": "uint256",
          "name": "_maxSupply",
          "type": "uint256"
        }
      ],
      "name": "setMaxSupply",
      "outputs": [],
      "stateMutability": "nonpayable",
      "type": "function"
    },
    {
      "inputs": [
        {
          "internalType": "uint8",
          "name": "tierIndex",
          "type": "uint8"
        },
        {
          "internalType": "uint128",
          "name": "duration",
          "type": "uint128"
        }
      ],
      "name": "setMembershipTierDuration",
      "outputs": [],
      "stateMutability": "nonpayable",
      "type": "function"
    },
    {
      "inputs": [
        {
          "internalType": "uint8",
          "name": "tierIndex",
          "type": "uint8"
        },
        {
          "internalType": "string",
          "name": "tierId",
          "type": "string"
        }
      ],
      "name": "setMembershipTierId",
      "outputs": [],
      "stateMutability": "nonpayable",
      "type": "function"
    },
    {
      "inputs": [
        {
          "internalType": "uint8",
          "name": "tierIndex",
          "type": "uint8"
        },
        {
          "internalType": "bool",
          "name": "isOpen",
          "type": "bool"
        }
      ],
      "name": "setMembershipTierOpenStatus",
      "outputs": [],
      "stateMutability": "nonpayable",
      "type": "function"
    },
    {
      "inputs": [
        {
          "internalType": "uint256",
          "name": "tokenId",
          "type": "uint256"
        },
        {
          "internalType": "uint8",
          "name": "tierIndex",
          "type": "uint8"
        }
      ],
      "name": "setTokenMembership",
      "outputs": [],
      "stateMutability": "nonpayable",
      "type": "function"
    },
    {
      "inputs": [
        {
          "internalType": "bytes4",
          "name": "interfaceId",
          "type": "bytes4"
        }
      ],
      "name": "supportsInterface",
      "outputs": [
        {
          "internalType": "bool",
          "name": "",
          "type": "bool"
        }
      ],
      "stateMutability": "view",
      "type": "function"
    },
    {
      "inputs": [],
      "name": "symbol",
      "outputs": [
        {
          "internalType": "string",
          "name": "",
          "type": "string"
        }
      ],
      "stateMutability": "view",
      "type": "function"
    },
    {
      "inputs": [
        {
          "internalType": "uint256",
          "name": "tokenId",
          "type": "uint256"
        }
      ],
      "name": "tokenURI",
      "outputs": [
        {
          "internalType": "string",
          "name": "",
          "type": "string"
        }
      ],
      "stateMutability": "view",
      "type": "function"
    },
    {
      "inputs": [],
      "name": "totalSupply",
      "outputs": [
        {
          "internalType": "uint256",
          "name": "",
          "type": "uint256"
        }
      ],
      "stateMutability": "view",
      "type": "function"
    },
    {
      "inputs": [
        {
          "internalType": "address",
          "name": "from",
          "type": "address"
        },
        {
          "internalType": "address",
          "name": "to",
          "type": "address"
        },
        {
          "internalType": "uint256",
          "name": "tokenId",
          "type": "uint256"
        }
      ],
      "name": "transferFrom",
      "outputs": [],
      "stateMutability": "nonpayable",
      "type": "function"
    },
    {
      "inputs": [
        {
          "internalType": "address",
          "name": "newOwner",
          "type": "address"
        }
      ],
      "name": "transferOwnership",
      "outputs": [],
      "stateMutability": "nonpayable",
      "type": "function"
    },
    {
      "inputs": [
        {
          "internalType": "address payable",
          "name": "_accountImplementation",
          "type": "address"
        }
      ],
      "name": "updateImplementation",
      "outputs": [],
      "stateMutability": "nonpayable",
      "type": "function"
    }
  ],
  "bytecode": {
    "object": "0x60806040523480156200001157600080fd5b5060408051602080820183526000808352835191820190935282815290916200003b8382620000f8565b5060016200004a8282620000f8565b505050620001c4565b634e487b7160e01b600052604160045260246000fd5b600181811c908216806200007e57607f821691505b6020821081036200009f57634e487b7160e01b600052602260045260246000fd5b50919050565b601f821115620000f357600081815260208120601f850160051c81016020861015620000ce5750805b601f850160051c820191505b81811015620000ef57828155600101620000da565b5050505b505050565b81516001600160401b0381111562000114576200011462000053565b6200012c8162000125845462000069565b84620000a5565b602080601f8311600181146200016457600084156200014b5750858301515b600019600386901b1c1916600185901b178555620000ef565b600085815260208120601f198616915b82811015620001955788860151825594840194600190910190840162000174565b5085821015620001b45787850151600019600388901b60f8161c191681555b5050505050600190811b01905550565b612efb80620001d46000396000f3fe608060405234801561001057600080fd5b506004361061025e5760003560e01c80636f8b44b011610146578063a22cb465116100c3578063cf64a0eb11610087578063cf64a0eb146105b7578063d5abeb01146105ca578063e985e9c5146105d3578063f2fde38b146105e6578063f577a500146105f9578063fe7c052d1461060c57600080fd5b8063a22cb46514610546578063b144b02a14610559578063b88d4fde1461056c578063c7224ecd1461057f578063c87b56dd146105a457600080fd5b806382ad6a651161010a57806382ad6a65146104f157806386c996001461050557806389e7d36e146105185780638da5cb5b1461052b57806395d89b411461053e57600080fd5b80636f8b44b01461049257806370480275146104a557806370a08231146104b857806371e5b594146104cb5780637b103999146104de57600080fd5b806335e481e5116101df5780635800be95116101a35780635800be95146104015780635e4cb7a9146104145780636352211e146104275780636a6278421461043a5780636d0182a81461046c5780636d1d3fec1461047f57600080fd5b806335e481e51461036e57806342842e0e146103a857806342966c68146103bb5780634a523d7b146103ce57806355f804b3146103ee57600080fd5b806311464fbe1161022657806311464fbe146102f35780631785f53c1461030657806318160ddd1461031957806323b872dd1461032f57806324d7806c1461034257600080fd5b806301ffc9a714610263578063025b22bc1461028b57806306fdde03146102a0578063081812fc146102b5578063095ea7b3146102e0575b600080fd5b61027661027136600461234c565b610620565b60405190151581526020015b60405180910390f35b61029e61029936600461238e565b61064b565b005b6102a86106a0565b60405161028291906123fb565b6102c86102c336600461240e565b610732565b6040516001600160a01b039091168152602001610282565b61029e6102ee366004612427565b61075a565b600a546102c8906001600160a01b031681565b61029e61031436600461238e565b61076a565b6103216107b5565b604051908152602001610282565b61029e61033d366004612453565b6107cc565b61027661035036600461238e565b6001600160a01b031660009081526011602052604090205460ff1690565b61038161037c36600461240e565b610822565b60408051825160ff1681526020928301516001600160801b03169281019290925201610282565b61029e6103b6366004612453565b6108a7565b61029e6103c936600461240e565b6108c2565b6103e16103dc3660046124a5565b61095d565b60405161028291906124c0565b61029e6103fc3660046125c4565b610a55565b61029e61040f366004612716565b610a8f565b6102c861042236600461240e565b610ca5565b6102c861043536600461240e565b610d34565b61044d61044836600461238e565b610d6d565b604080516001600160a01b039093168352602083019190915201610282565b61029e61047a36600461280d565b610eba565b61029e61048d366004612839565b610fac565b61029e6104a036600461240e565b611040565b61029e6104b336600461238e565b611149565b6103216104c636600461238e565b611197565b61029e6104d9366004612863565b6111df565b600e546102c8906001600160a01b031681565b600a5461027690600160b81b900460ff1681565b61029e6105133660046128b0565b61125c565b61029e6105263660046129a7565b6114c3565b6009546102c8906001600160a01b031681565b6102a8611564565b61029e6105543660046129d1565b611573565b61029e6105673660046129ef565b61157e565b61029e61057a366004612a4c565b6116c4565b61059261058d3660046125c4565b61171b565b60405160ff9091168152602001610282565b6102a86105b236600461240e565b61184a565b6102a86105c53660046124a5565b6118be565b610321600b5481565b6102766105e1366004612acb565b611964565b61029e6105f436600461238e565b611992565b61027661060736600461240e565b611a34565b600a5461027690600160b01b900460ff1681565b60006001600160e01b0319821663da0d82f560e01b1480610645575061064582611b9e565b92915050565b6009546001600160a01b0316331461067e5760405162461bcd60e51b815260040161067590612b04565b60405180910390fd5b600a80546001600160a01b0319166001600160a01b0392909216919091179055565b6060600680546106af90612b49565b80601f01602080910402602001604051908101604052809291908181526020018280546106db90612b49565b80156107285780601f106106fd57610100808354040283529160200191610728565b820191906000526020600020905b81548152906001019060200180831161070b57829003601f168201915b5050505050905090565b600061073d82611bee565b6000828152600460205260409020546001600160a01b0316610645565b610765828233611c26565b505050565b6009546001600160a01b031633146107945760405162461bcd60e51b815260040161067590612b04565b6001600160a01b03166000908152601160205260409020805460ff19169055565b6000600c54600d546107c79190612b93565b905090565b600a54600160b81b900460ff16156108175760405162461bcd60e51b815260206004820152600e60248201526d151bdad95b881a5cc8189bdd5b9960921b6044820152606401610675565b610765838383611cf9565b6040805180820182526000808252602080830182905284825260029052919091205482906001600160a01b031661086b5760405162461bcd60e51b815260040161067590612ba6565b60008381526010602090815260409182902082518084019093525460ff8116835261010090046001600160801b03169082015291505b50919050565b610765838383604051806020016040528060008152506116c4565b3360009081526011602052604090205460ff166108f15760405162461bcd60e51b815260040161067590612bd4565b600c6000815461090090612bf8565b909155506040805180820182526000808252602080830182815285835260109091529290209051815492516001600160801b0316610100026001600160881b031990931660ff919091161791909117905561095a81611d7e565b50565b604080516060808201835281526000602082018190529181019190915260ff82166000908152600f6020526040908190208151606081019092528054829082906109a690612b49565b80601f01602080910402602001604051908101604052809291908181526020018280546109d290612b49565b8015610a1f5780601f106109f457610100808354040283529160200191610a1f565b820191906000526020600020905b815481529060010190602001808311610a0257829003601f168201915b5050509183525050600191909101546001600160801b0381166020830152600160801b900460ff16151560409091015292915050565b6009546001600160a01b03163314610a7f5760405162461bcd60e51b815260040161067590612b04565b6008610a8b8282612c5f565b5050565b3360009081526011602052604090205460ff16610abe5760405162461bcd60e51b815260040161067590612bd4565b82518151148015610ad0575081518351145b610b135760405162461bcd60e51b8152602060048201526014602482015273092dce0eae840c2e4e4c2f240dad2e6dac2e8c6d60631b6044820152606401610675565b600a54835160ff600160a81b8304811692610b379291600160a01b90910416612d1e565b1115610b7e5760405162461bcd60e51b815260206004820152601660248201527513585e08151a595c881b1a5b5a5d081c995858da195960521b6044820152606401610675565b60005b8351811015610c9f576040518060600160405280858381518110610ba757610ba7612d31565b60200260200101518152602001848381518110610bc657610bc6612d31565b60200260200101516001600160801b03168152602001838381518110610bee57610bee612d31565b60200260200101511515815250600f6000600a601481819054906101000a900460ff16610c1a90612d47565b825460ff9182166101009390930a83810292021916179091558152602081019190915260400160002081518190610c519082612c5f565b506020820151600190910180546040909301511515600160801b026001600160881b03199093166001600160801b039092169190911791909117905580610c9781612bf8565b915050610b81565b50505050565b600e54600a54604051632f4de29b60e11b81526001600160a01b03918216600482015246602482015230604482015260648101849052600060848201819052929190911690635e9bc5369060a401602060405180830381865afa158015610d10573d6000803e3d6000fd5b505050506040513d601f19601f820116820180604052508101906106459190612d66565b6000818152600260205260408120546001600160a01b03168061064557604051637e27328960e01b815260048101849052602401610675565b33600090815260116020526040812054819060ff16610d9e5760405162461bcd60e51b815260040161067590612bd4565b6000600d60008154610daf90612bf8565b9190508190559050600b54811115610dfe5760405162461bcd60e51b815260206004820152601260248201527113585e081cdd5c1c1b1e481c995858da195960721b6044820152606401610675565b600e54600a54600d546040805160048082526024820183526020820180516001600160e01b031663204a7f0760e21b179052915163da7323b360e01b81526001600160a01b039586169563da7323b395610e62959116934693309360009201612d83565b6020604051808303816000875af1158015610e81573d6000803e3d6000fd5b505050506040513d601f19601f82011682018060405250810190610ea59190612d66565b9250610eb384600d54611db9565b9050915091565b3360009081526011602052604090205460ff16610ee95760405162461bcd60e51b815260040161067590612bd4565b600a54819060ff600160a01b90910481169082161115610f1b5760405162461bcd60e51b815260040161067590612dcc565b60008381526002602052604090205483906001600160a01b0316610f515760405162461bcd60e51b815260040161067590612ba6565b505060408051808201825260ff92831681526001600160801b03428116602080840191825260009687526010905292909420905181549251909416610100026001600160881b03199092169390921692909217919091179055565b3360009081526011602052604090205460ff16610fdb5760405162461bcd60e51b815260040161067590612bd4565b600a54829060ff600160a01b9091048116908216111561100d5760405162461bcd60e51b815260040161067590612dcc565b5060ff9091166000908152600f602052604090206001018054911515600160801b0260ff60801b19909216919091179055565b3360009081526011602052604090205460ff1661106f5760405162461bcd60e51b815260040161067590612bd4565b600a54600160b01b900460ff166110de5760405162461bcd60e51b815260206004820152602d60248201527f4d617820737570706c792063616e206f6e6c792062652073657420666f72206560448201526c6c617374696320746f6b656e7360981b6064820152608401610675565b600d5481116111445760405162461bcd60e51b815260206004820152602c60248201527f4d617820737570706c79206d7573742062652067726561746572207468616e2060448201526b1d1bdd185b081b5a5b9d195960a21b6064820152608401610675565b600b55565b6009546001600160a01b031633146111735760405162461bcd60e51b815260040161067590612b04565b6001600160a01b03166000908152601160205260409020805460ff19166001179055565b60006001600160a01b0382166111c3576040516322718ad960e21b815260006004820152602401610675565b506001600160a01b031660009081526003602052604090205490565b3360009081526011602052604090205460ff1661120e5760405162461bcd60e51b815260040161067590612bd4565b600a54829060ff600160a01b909104811690821611156112405760405162461bcd60e51b815260040161067590612dcc565b60ff83166000908152600f60205260409020610c9f8382612c5f565b7ff0c57e16840df040f15088dc2f81fe391c3923bec73e23a9662efc9c229c6a0e8054600160401b810460ff1615906001600160401b03168180156112aa57506001816001600160401b0316105b1580156112cc5750303b1580156112ca5750806001600160401b03166001145b155b156112e95760405162dc149f60e41b815260040160405180910390fd5b825467ffffffffffffffff19166001178355811561131357825460ff60401b1916600160401b1783555b8c600a60006101000a8154816001600160a01b0302191690836001600160a01b031602179055508b600e60006101000a8154816001600160a01b0302191690836001600160a01b0316021790555083600960006101000a8154816001600160a01b0302191690836001600160a01b03160217905550600160116000866001600160a01b03166001600160a01b0316815260200190815260200160002060006101000a81548160ff021916908315150217905550600160116000336001600160a01b03166001600160a01b0316815260200190815260200160002060006101000a81548160ff0219169083151502179055508a600690816114139190612c5f565b5060076114208b82612c5f565b50600861142d8a82612c5f565b50600a8054600b89905561ffff60a81b1916600160a81b60ff8b160260ff60b01b191617600160b01b881515021760ff60b81b1916600160b81b8715150217905581156114b457825460ff60401b19168355604051600181527fc7f505b2f371ae2175ee4913f4499e1f2633a7b5936321eed1cdaeb6115181d29060200160405180910390a15b50505050505050505050505050565b3360009081526011602052604090205460ff166114f25760405162461bcd60e51b815260040161067590612bd4565b600a54829060ff600160a01b909104811690821611156115245760405162461bcd60e51b815260040161067590612dcc565b5060ff919091166000908152600f6020526040902060010180546fffffffffffffffffffffffffffffffff19166001600160801b03909216919091179055565b6060600780546106af90612b49565b610a8b338383611e1e565b3360009081526011602052604090205460ff166115ad5760405162461bcd60e51b815260040161067590612bd4565b600a805460ff600160a81b8204811692916014916115d291600160a01b900416612d47565b91906101000a81548160ff021916908360ff160217905560ff1611156116335760405162461bcd60e51b815260206004820152601660248201527513585e08151a595c881b1a5b5a5d081c995858da195960521b6044820152606401610675565b604080516060810182528481526001600160801b03841660208083019190915283151582840152600a54600160a01b900460ff166000908152600f90915291909120815181906116839082612c5f565b506020820151600190910180546040909301511515600160801b026001600160881b03199093166001600160801b0390921691909117919091179055505050565b600a54600160b81b900460ff161561170f5760405162461bcd60e51b815260206004820152600e60248201526d151bdad95b881a5cc8189bdd5b9960921b6044820152606401610675565b610c9f84848484611ebd565b600060015b600a5460ff600160a01b9091048116908216116118415760ff81166000908152600f60205260408120805461175490612b49565b80601f016020809104026020016040519081016040528092919081815260200182805461178090612b49565b80156117cd5780601f106117a2576101008083540402835291602001916117cd565b820191906000526020600020905b8154815290600101906020018083116117b057829003601f168201915b50505050509050836040516020016117e59190612df9565b604051602081830303815290604052805190602001208160405160200161180c9190612df9565b604051602081830303815290604052805190602001200361182e575092915050565b508061183981612d47565b915050611720565b50600092915050565b606061185582611bee565b600061186c60408051602081019091526000815290565b9050600081511161188c57604051806020016040528060008152506118b7565b8061189684611ed4565b6040516020016118a7929190612e15565b6040516020818303038152906040525b9392505050565b60ff81166000908152600f602052604090208054606091906118df90612b49565b80601f016020809104026020016040519081016040528092919081815260200182805461190b90612b49565b80156119585780601f1061192d57610100808354040283529160200191611958565b820191906000526020600020905b81548152906001019060200180831161193b57829003601f168201915b50505050509050919050565b6001600160a01b03918216600090815260056020908152604080832093909416825291909152205460ff1690565b6009546001600160a01b031633146119bc5760405162461bcd60e51b815260040161067590612b04565b6001600160a01b038116611a125760405162461bcd60e51b815260206004820181905260248201527f4e6577206f776e657220616464726573732063616e6e6f74206265207a65726f6044820152606401610675565b600980546001600160a01b0319166001600160a01b0392909216919091179055565b60008181526002602052604081205482906001600160a01b0316611a6a5760405162461bcd60e51b815260040161067590612ba6565b600083815260106020908152604080832081518083018352905460ff81168083526101009091046001600160801b0316828501528452600f909252808320815160608101909252805492939282908290611ac390612b49565b80601f0160208091040260200160405190810160405280929190818152602001828054611aef90612b49565b8015611b3c5780601f10611b1157610100808354040283529160200191611b3c565b820191906000526020600020905b815481529060010190602001808311611b1f57829003601f168201915b5050509183525050600191909101546001600160801b038116602080840191909152600160801b90910460ff16151560409092019190915281810151908401519192504291611b8b9190612e44565b6001600160801b03161195945050505050565b60006001600160e01b031982166380ac58cd60e01b1480611bcf57506001600160e01b03198216635b5e139f60e01b145b8061064557506301ffc9a760e01b6001600160e01b0319831614610645565b6000818152600260205260409020546001600160a01b031661095a57604051637e27328960e01b815260048101829052602401610675565b600080611c3284610d34565b90506001600160a01b03831615801590611c5e5750826001600160a01b0316816001600160a01b031614155b8015611c715750611c6f8184611964565b155b15611c9a5760405163a9fbf51f60e01b81526001600160a01b0384166004820152602401610675565b60008481526004602052604080822080546001600160a01b0319166001600160a01b0389811691821790925591518793918516917f8c5be1e5ebec7d5bd14f71427d1e84f3dd0314c0f7b2291e5b200ac8c7c3b92591a4949350505050565b6001600160a01b038216611d2357604051633250574960e11b815260006004820152602401610675565b6000611d30838333611f66565b9050836001600160a01b0316816001600160a01b031614610c9f576040516364283d7b60e01b81526001600160a01b0380861660048301526024820184905282166044820152606401610675565b6000611d8d6000836000611f66565b90506001600160a01b038116610a8b57604051637e27328960e01b815260048101839052602401610675565b6001600160a01b038216611de357604051633250574960e11b815260006004820152602401610675565b6000611df183836000611f66565b90506001600160a01b03811615610765576040516339e3563760e11b815260006004820152602401610675565b6001600160a01b038216611e5057604051630b61174360e31b81526001600160a01b0383166004820152602401610675565b6001600160a01b03838116600081815260056020908152604080832094871680845294825291829020805460ff191686151590811790915591519182527f17307eab39ab6107e8899845ad3d59bd9653f200f220920489ca2b5937696c31910160405180910390a3505050565b611ec88484846107cc565b610c9f8484848461206b565b60606000611ee183612194565b60010190506000816001600160401b03811115611f0057611f00612507565b6040519080825280601f01601f191660200182016040528015611f2a576020820181803683370190505b5090508181016020015b600019016f181899199a1a9b1b9c1cb0b131b232b360811b600a86061a8153600a8504945084611f3457509392505050565b6000828152600260205260408120546001600160a01b0390811690831615611f9357611f9381848661226c565b6001600160a01b03811615611fdd57600084815260046020908152604080832080546001600160a01b03191690556001600160a01b03841683526003909152902080546000190190555b6001600160a01b0385161561200c576001600160a01b0385166000908152600360205260409020805460010190555b60008481526002602052604080822080546001600160a01b0319166001600160a01b0389811691821790925591518793918516917fddf252ad1be2c89b69c2b068fc378daa952ba7f163c4a11628f55a4df523b3ef91a4949350505050565b6001600160a01b0383163b15610c9f57604051630a85bd0160e11b81526001600160a01b0384169063150b7a02906120ad903390889087908790600401612e6b565b6020604051808303816000875af19250505080156120e8575060408051601f3d908101601f191682019092526120e591810190612ea8565b60015b612151573d808015612116576040519150601f19603f3d011682016040523d82523d6000602084013e61211b565b606091505b50805160000361214957604051633250574960e11b81526001600160a01b0385166004820152602401610675565b805181602001fd5b6001600160e01b03198116630a85bd0160e11b1461218d57604051633250574960e11b81526001600160a01b0385166004820152602401610675565b5050505050565b60008072184f03e93ff9f4daa797ed6e38ed64bf6a1f0160401b83106121d35772184f03e93ff9f4daa797ed6e38ed64bf6a1f0160401b830492506040015b6d04ee2d6d415b85acef810000000083106121ff576d04ee2d6d415b85acef8100000000830492506020015b662386f26fc10000831061221d57662386f26fc10000830492506010015b6305f5e1008310612235576305f5e100830492506008015b612710831061224957612710830492506004015b6064831061225b576064830492506002015b600a83106106455760010192915050565b6122778383836122d0565b610765576001600160a01b0383166122a557604051637e27328960e01b815260048101829052602401610675565b60405163177e802f60e01b81526001600160a01b038316600482015260248101829052604401610675565b60006001600160a01b0383161580159061232e5750826001600160a01b0316846001600160a01b0316148061230a575061230a8484611964565b8061232e57506000828152600460205260409020546001600160a01b038481169116145b949350505050565b6001600160e01b03198116811461095a57600080fd5b60006020828403121561235e57600080fd5b81356118b781612336565b6001600160a01b038116811461095a57600080fd5b803561238981612369565b919050565b6000602082840312156123a057600080fd5b81356118b781612369565b60005b838110156123c65781810151838201526020016123ae565b50506000910152565b600081518084526123e78160208601602086016123ab565b601f01601f19169290920160200192915050565b6020815260006118b760208301846123cf565b60006020828403121561242057600080fd5b5035919050565b6000806040838503121561243a57600080fd5b823561244581612369565b946020939093013593505050565b60008060006060848603121561246857600080fd5b833561247381612369565b9250602084013561248381612369565b929592945050506040919091013590565b803560ff8116811461238957600080fd5b6000602082840312156124b757600080fd5b6118b782612494565b6020815260008251606060208401526124dc60808401826123cf565b90506001600160801b0360208501511660408401526040840151151560608401528091505092915050565b634e487b7160e01b600052604160045260246000fd5b604051601f8201601f191681016001600160401b038111828210171561254557612545612507565b604052919050565b60006001600160401b0383111561256657612566612507565b612579601f8401601f191660200161251d565b905082815283838301111561258d57600080fd5b828260208301376000602084830101529392505050565b600082601f8301126125b557600080fd5b6118b78383356020850161254d565b6000602082840312156125d657600080fd5b81356001600160401b038111156125ec57600080fd5b61232e848285016125a4565b60006001600160401b0382111561261157612611612507565b5060051b60200190565b80356001600160801b038116811461238957600080fd5b600082601f83011261264357600080fd5b81356020612658612653836125f8565b61251d565b82815260059290921b8401810191818101908684111561267757600080fd5b8286015b848110156126995761268c8161261b565b835291830191830161267b565b509695505050505050565b8035801515811461238957600080fd5b600082601f8301126126c557600080fd5b813560206126d5612653836125f8565b82815260059290921b840181019181810190868411156126f457600080fd5b8286015b8481101561269957612709816126a4565b83529183019183016126f8565b60008060006060848603121561272b57600080fd5b83356001600160401b038082111561274257600080fd5b818601915086601f83011261275657600080fd5b81356020612766612653836125f8565b82815260059290921b8401810191818101908a84111561278557600080fd5b8286015b848110156127bd578035868111156127a15760008081fd5b6127af8d86838b01016125a4565b845250918301918301612789565b50975050870135925050808211156127d457600080fd5b6127e087838801612632565b935060408601359150808211156127f657600080fd5b50612803868287016126b4565b9150509250925092565b6000806040838503121561282057600080fd5b8235915061283060208401612494565b90509250929050565b6000806040838503121561284c57600080fd5b61285583612494565b9150612830602084016126a4565b6000806040838503121561287657600080fd5b61287f83612494565b915060208301356001600160401b0381111561289a57600080fd5b6128a6858286016125a4565b9150509250929050565b6000806000806000806000806000806101408b8d0312156128d057600080fd5b6128d98b61237e565b99506128e760208c0161237e565b985060408b01356001600160401b038082111561290357600080fd5b61290f8e838f016125a4565b995060608d013591508082111561292557600080fd5b6129318e838f016125a4565b985060808d013591508082111561294757600080fd5b506129548d828e016125a4565b96505061296360a08c01612494565b945060c08b0135935061297860e08c016126a4565b92506129876101008c016126a4565b91506129966101208c0161237e565b90509295989b9194979a5092959850565b600080604083850312156129ba57600080fd5b6129c383612494565b91506128306020840161261b565b600080604083850312156129e457600080fd5b823561285581612369565b600080600060608486031215612a0457600080fd5b83356001600160401b03811115612a1a57600080fd5b612a26868287016125a4565b935050612a356020850161261b565b9150612a43604085016126a4565b90509250925092565b60008060008060808587031215612a6257600080fd5b8435612a6d81612369565b93506020850135612a7d81612369565b92506040850135915060608501356001600160401b03811115612a9f57600080fd5b8501601f81018713612ab057600080fd5b612abf8782356020840161254d565b91505092959194509250565b60008060408385031215612ade57600080fd5b8235612ae981612369565b91506020830135612af981612369565b809150509250929050565b60208082526025908201527f4f6e6c7920746865206f776e65722063616e2063616c6c20746869732066756e60408201526431ba34b7b760d91b606082015260800190565b600181811c90821680612b5d57607f821691505b6020821081036108a157634e487b7160e01b600052602260045260246000fd5b634e487b7160e01b600052601160045260246000fd5b8181038181111561064557610645612b7d565b602080825260149082015273151bdad95b88191bd95cc81b9bdd08195e1a5cdd60621b604082015260600190565b6020808252600a908201526927b7363c9030b236b4b760b11b604082015260600190565b600060018201612c0a57612c0a612b7d565b5060010190565b601f82111561076557600081815260208120601f850160051c81016020861015612c385750805b601f850160051c820191505b81811015612c5757828155600101612c44565b505050505050565b81516001600160401b03811115612c7857612c78612507565b612c8c81612c868454612b49565b84612c11565b602080601f831160018114612cc15760008415612ca95750858301515b600019600386901b1c1916600185901b178555612c57565b600085815260208120601f198616915b82811015612cf057888601518255948401946001909101908401612cd1565b5085821015612d0e5787850151600019600388901b60f8161c191681555b5050505050600190811b01905550565b8082018082111561064557610645612b7d565b634e487b7160e01b600052603260045260246000fd5b600060ff821660ff8103612d5d57612d5d612b7d565b60010192915050565b600060208284031215612d7857600080fd5b81516118b781612369565b600060018060a01b03808916835287602084015280871660408401525084606083015283608083015260c060a0830152612dc060c08301846123cf565b98975050505050505050565b602080825260139082015272151a595c88191bd95cc81b9bdd08195e1a5cdd606a1b604082015260600190565b60008251612e0b8184602087016123ab565b9190910192915050565b60008351612e278184602088016123ab565b835190830190612e3b8183602088016123ab565b01949350505050565b6001600160801b03818116838216019080821115612e6457612e64612b7d565b5092915050565b6001600160a01b0385811682528416602082015260408101839052608060608201819052600090612e9e908301846123cf565b9695505050505050565b600060208284031215612eba57600080fd5b81516118b78161233656fea26469706673582212202d0f3879284b18a1f0097f6ff389eaa5e0d7a65128ddaa228613162912e6c22064736f6c63430008150033",
    "linkReferences": {}
  },
  "methodIdentifiers": {
    "accountImplementation()": "11464fbe",
    "addAdmin(address)": "70480275",
    "approve(address,uint256)": "095ea7b3",
    "balanceOf(address)": "70a08231",
    "burn(uint256)": "42966c68",
    "createMembershipTier(string,uint128,bool)": "b144b02a",
    "createMembershipTiers(string[],uint128[],bool[])": "5800be95",
    "getApproved(uint256)": "081812fc",
    "getMembershipTierDetails(uint8)": "4a523d7b",
    "getMembershipTierId(uint8)": "cf64a0eb",
    "getTBAccount(uint256)": "5e4cb7a9",
    "getTierIndexByTierId(string)": "c7224ecd",
    "getTokenMembership(uint256)": "35e481e5",
    "initialize(address,address,string,string,string,uint8,uint256,bool,bool,address)": "86c99600",
    "isAdmin(address)": "24d7806c",
    "isApprovedForAll(address,address)": "e985e9c5",
    "isBound()": "82ad6a65",
    "isElastic()": "fe7c052d",
    "isValid(uint256)": "f577a500",
    "maxSupply()": "d5abeb01",
    "mint(address)": "6a627842",
    "name()": "06fdde03",
    "owner()": "8da5cb5b",
    "ownerOf(uint256)": "6352211e",
    "registry()": "7b103999",
    "removeAdmin(address)": "1785f53c",
    "safeTransferFrom(address,address,uint256)": "42842e0e",
    "safeTransferFrom(address,address,uint256,bytes)": "b88d4fde",
    "setApprovalForAll(address,bool)": "a22cb465",
    "setBaseURI(string)": "55f804b3",
    "setMaxSupply(uint256)": "6f8b44b0",
    "setMembershipTierDuration(uint8,uint128)": "89e7d36e",
    "setMembershipTierId(uint8,string)": "71e5b594",
    "setMembershipTierOpenStatus(uint8,bool)": "6d1d3fec",
    "setTokenMembership(uint256,uint8)": "6d0182a8",
    "supportsInterface(bytes4)": "01ffc9a7",
    "symbol()": "95d89b41",
    "tokenURI(uint256)": "c87b56dd",
    "totalSupply()": "18160ddd",
    "transferFrom(address,address,uint256)": "23b872dd",
    "transferOwnership(address)": "f2fde38b",
    "updateImplementation(address)": "025b22bc"
  },
  "id": 60
}