{
  "abi": [
    {
      "inputs": [
        {
          "internalType": "address",
          "name": "_admin",
          "type": "address"
        },
        {
          "internalType": "address",
          "name": "_tronicMembership",
          "type": "address"
        },
        {
          "internalType": "address",
          "name": "_tronicToken",
          "type": "address"
        },
        {
          "internalType": "address",
          "name": "_registry",
          "type": "address"
        },
        {
          "internalType": "address",
          "name": "_tbaImplementation",
          "type": "address"
        }
      ],
      "stateMutability": "nonpayable",
      "type": "constructor"
    },
    {
      "inputs": [],
      "name": "ERC1167FailedCreateClone",
      "type": "error"
    },
    {
      "anonymous": false,
      "inputs": [
        {
          "indexed": true,
          "internalType": "uint256",
          "name": "membershipId",
          "type": "uint256"
        },
        {
          "indexed": true,
          "internalType": "address",
          "name": "membershipAddress",
          "type": "address"
        },
        {
          "indexed": true,
          "internalType": "address",
          "name": "tokenAddress",
          "type": "address"
        }
      ],
      "name": "MembershipAdded",
      "type": "event"
    },
    {
      "anonymous": false,
      "inputs": [
        {
          "indexed": true,
          "internalType": "address",
          "name": "membershipAddress",
          "type": "address"
        },
        {
          "indexed": true,
          "internalType": "address",
          "name": "recipientAddress",
          "type": "address"
        },
        {
          "indexed": true,
          "internalType": "uint256",
          "name": "tokenId",
          "type": "uint256"
        }
      ],
      "name": "MembershipMinted",
      "type": "event"
    },
    {
      "anonymous": false,
      "inputs": [
        {
          "indexed": true,
          "internalType": "uint256",
          "name": "membershipId",
          "type": "uint256"
        }
      ],
      "name": "MembershipRemoved",
      "type": "event"
    },
    {
      "anonymous": false,
      "inputs": [
        {
          "indexed": true,
          "internalType": "address",
          "name": "membershipAddress",
          "type": "address"
        },
        {
          "indexed": true,
          "internalType": "uint256",
          "name": "tokenId",
          "type": "uint256"
        },
        {
          "indexed": true,
          "internalType": "uint256",
          "name": "tierIndex",
          "type": "uint256"
        }
      ],
      "name": "TierAssigned",
      "type": "event"
    },
    {
      "inputs": [
        {
          "internalType": "address",
          "name": "admin",
          "type": "address"
        }
      ],
      "name": "addAdmin",
      "outputs": [],
      "stateMutability": "nonpayable",
      "type": "function"
    },
    {
      "inputs": [
        {
          "internalType": "uint256[]",
          "name": "_membershipIds",
          "type": "uint256[]"
        },
        {
          "internalType": "address[][]",
          "name": "_recipients",
          "type": "address[][]"
        },
        {
          "internalType": "uint256[][][][]",
          "name": "_tokenTypeIDs",
          "type": "uint256[][][][]"
        },
        {
          "internalType": "uint256[][][][]",
          "name": "_amounts",
          "type": "uint256[][][][]"
        },
        {
          "internalType": "enum TronicMain.TokenType[][][]",
          "name": "_contractTypes",
          "type": "uint8[][][]"
        }
      ],
      "name": "batchProcess",
      "outputs": [],
      "stateMutability": "nonpayable",
      "type": "function"
    },
    {
      "inputs": [
        {
          "internalType": "uint256",
          "name": "maxSupply",
          "type": "uint256"
        },
        {
          "internalType": "string",
          "name": "uri",
          "type": "string"
        },
        {
          "internalType": "uint256",
          "name": "membershipId",
          "type": "uint256"
        }
      ],
      "name": "createFungibleTokenType",
      "outputs": [
        {
          "internalType": "uint256",
          "name": "typeId",
          "type": "uint256"
        }
      ],
      "stateMutability": "nonpayable",
      "type": "function"
    },
    {
      "inputs": [
        {
          "internalType": "string",
          "name": "baseUri",
          "type": "string"
        },
        {
          "internalType": "uint64",
          "name": "maxMintable",
          "type": "uint64"
        },
        {
          "internalType": "uint256",
          "name": "membershipId",
          "type": "uint256"
        }
      ],
      "name": "createNonFungibleTokenType",
      "outputs": [
        {
          "internalType": "uint256",
          "name": "nftTypeID",
          "type": "uint256"
        }
      ],
      "stateMutability": "nonpayable",
      "type": "function"
    },
    {
      "inputs": [
        {
          "internalType": "string",
          "name": "membershipName",
          "type": "string"
        },
        {
          "internalType": "string",
          "name": "membershipSymbol",
          "type": "string"
        },
        {
          "internalType": "string",
          "name": "membershipBaseURI",
          "type": "string"
        },
        {
          "internalType": "uint256",
          "name": "maxMintable",
          "type": "uint256"
        },
        {
          "internalType": "bool",
          "name": "isElastic",
          "type": "bool"
        },
        {
          "internalType": "bool",
          "name": "isBound",
          "type": "bool"
        },
        {
          "internalType": "string[]",
          "name": "tierIds",
          "type": "string[]"
        },
        {
          "internalType": "uint128[]",
          "name": "durations",
          "type": "uint128[]"
        },
        {
          "internalType": "bool[]",
          "name": "isOpens",
          "type": "bool[]"
        }
      ],
      "name": "deployMembership",
      "outputs": [
        {
          "internalType": "uint256",
          "name": "memberId",
          "type": "uint256"
        },
        {
          "internalType": "address",
          "name": "membershipAddress",
          "type": "address"
        },
        {
          "internalType": "address",
          "name": "tokenAddress",
          "type": "address"
        }
      ],
      "stateMutability": "nonpayable",
      "type": "function"
    },
    {
      "inputs": [
        {
          "internalType": "uint256",
          "name": "membershipId",
          "type": "uint256"
        }
      ],
      "name": "getMembershipInfo",
      "outputs": [
        {
          "components": [
            {
              "internalType": "address",
              "name": "membershipAddress",
              "type": "address"
            },
            {
              "internalType": "address",
              "name": "tokenAddress",
              "type": "address"
            },
            {
              "internalType": "string",
              "name": "membershipName",
              "type": "string"
            }
          ],
          "internalType": "struct TronicMain.MembershipInfo",
          "name": "",
          "type": "tuple"
        }
      ],
      "stateMutability": "view",
      "type": "function"
    },
    {
      "inputs": [
        {
          "internalType": "uint256",
          "name": "_membershipId",
          "type": "uint256"
        },
        {
          "internalType": "string",
          "name": "tierId",
          "type": "string"
        }
      ],
      "name": "getTierIndexByTierId",
      "outputs": [
        {
          "internalType": "uint8",
          "name": "",
          "type": "uint8"
        }
      ],
      "stateMutability": "view",
      "type": "function"
    },
    {
      "inputs": [
        {
          "internalType": "address",
          "name": "admin",
          "type": "address"
        }
      ],
      "name": "isAdmin",
      "outputs": [
        {
          "internalType": "bool",
          "name": "",
          "type": "bool"
        }
      ],
      "stateMutability": "view",
      "type": "function"
    },
    {
      "inputs": [],
      "name": "maxTiersPerMembership",
      "outputs": [
        {
          "internalType": "uint8",
          "name": "",
          "type": "uint8"
        }
      ],
      "stateMutability": "view",
      "type": "function"
    },
    {
      "inputs": [],
      "name": "membershipCounter",
      "outputs": [
        {
          "internalType": "uint256",
          "name": "",
          "type": "uint256"
        }
      ],
      "stateMutability": "view",
      "type": "function"
    },
    {
      "inputs": [
        {
          "internalType": "uint256",
          "name": "_membershipId",
          "type": "uint256"
        },
        {
          "internalType": "address",
          "name": "_recipient",
          "type": "address"
        },
        {
          "internalType": "uint256",
          "name": "_tokenId",
          "type": "uint256"
        },
        {
          "internalType": "uint64",
          "name": "_amount",
          "type": "uint64"
        }
      ],
      "name": "mintFungibleToken",
      "outputs": [],
      "stateMutability": "nonpayable",
      "type": "function"
    },
    {
      "inputs": [
        {
          "internalType": "address",
          "name": "_recipient",
          "type": "address"
        },
        {
          "internalType": "uint256",
          "name": "_membershipId",
          "type": "uint256"
        },
        {
          "internalType": "uint8",
          "name": "_tierIndex",
          "type": "uint8"
        }
      ],
      "name": "mintMembership",
      "outputs": [
        {
          "internalType": "address payable",
          "name": "",
          "type": "address"
        },
        {
          "internalType": "uint256",
          "name": "",
          "type": "uint256"
        }
      ],
      "stateMutability": "nonpayable",
      "type": "function"
    },
    {
      "inputs": [
        {
          "internalType": "uint256",
          "name": "_membershipId",
          "type": "uint256"
        },
        {
          "internalType": "address",
          "name": "_recipient",
          "type": "address"
        },
        {
          "internalType": "uint256",
          "name": "_typeId",
          "type": "uint256"
        },
        {
          "internalType": "uint256",
          "name": "_amount",
          "type": "uint256"
        }
      ],
      "name": "mintNonFungibleToken",
      "outputs": [],
      "stateMutability": "nonpayable",
      "type": "function"
    },
    {
      "inputs": [],
      "name": "owner",
      "outputs": [
        {
          "internalType": "address",
          "name": "",
          "type": "address"
        }
      ],
      "stateMutability": "view",
      "type": "function"
    },
    {
      "inputs": [],
      "name": "registry",
      "outputs": [
        {
          "internalType": "contract IERC6551Registry",
          "name": "",
          "type": "address"
        }
      ],
      "stateMutability": "view",
      "type": "function"
    },
    {
      "inputs": [
        {
          "internalType": "address",
          "name": "admin",
          "type": "address"
        }
      ],
      "name": "removeAdmin",
      "outputs": [],
      "stateMutability": "nonpayable",
      "type": "function"
    },
    {
      "inputs": [
        {
          "internalType": "uint256",
          "name": "_membershipId",
          "type": "uint256"
        }
      ],
      "name": "removeMembership",
      "outputs": [],
      "stateMutability": "nonpayable",
      "type": "function"
    },
    {
      "inputs": [
        {
          "internalType": "address payable",
          "name": "newImplementation",
          "type": "address"
        }
      ],
      "name": "setAccountImplementation",
      "outputs": [],
      "stateMutability": "nonpayable",
      "type": "function"
    },
    {
      "inputs": [
        {
          "internalType": "address",
          "name": "newImplementation",
          "type": "address"
        }
      ],
      "name": "setERC1155Implementation",
      "outputs": [],
      "stateMutability": "nonpayable",
      "type": "function"
    },
    {
      "inputs": [
        {
          "internalType": "address",
          "name": "newImplementation",
          "type": "address"
        }
      ],
      "name": "setERC721Implementation",
      "outputs": [],
      "stateMutability": "nonpayable",
      "type": "function"
    },
    {
      "inputs": [
        {
          "internalType": "address",
          "name": "newRegistry",
          "type": "address"
        }
      ],
      "name": "setRegistry",
      "outputs": [],
      "stateMutability": "nonpayable",
      "type": "function"
    },
    {
      "inputs": [],
      "name": "tbaAccountImplementation",
      "outputs": [
        {
          "internalType": "address payable",
          "name": "",
          "type": "address"
        }
      ],
      "stateMutability": "view",
      "type": "function"
    },
    {
      "inputs": [
        {
          "internalType": "uint256",
          "name": "_tronicTokenId",
          "type": "uint256"
        },
        {
          "internalType": "uint256",
          "name": "_membershipId",
          "type": "uint256"
        },
        {
          "internalType": "uint256",
          "name": "_membershipTokenId",
          "type": "uint256"
        },
        {
          "internalType": "address",
          "name": "_to",
          "type": "address"
        }
      ],
      "name": "transferMembershipFromTronicTBA",
      "outputs": [],
      "stateMutability": "nonpayable",
      "type": "function"
    },
    {
      "inputs": [
        {
          "internalType": "uint256",
          "name": "_tronicTokenId",
          "type": "uint256"
        },
        {
          "internalType": "uint256",
          "name": "_membershipId",
          "type": "uint256"
        },
        {
          "internalType": "uint256",
          "name": "_membershipTokenId",
          "type": "uint256"
        },
        {
          "internalType": "address",
          "name": "_to",
          "type": "address"
        },
        {
          "internalType": "uint256",
          "name": "_transferTokenId",
          "type": "uint256"
        },
        {
          "internalType": "uint256",
          "name": "_amount",
          "type": "uint256"
        }
      ],
      "name": "transferTokensFromMembershipTBA",
      "outputs": [],
      "stateMutability": "nonpayable",
      "type": "function"
    },
    {
      "inputs": [
        {
          "internalType": "uint256",
          "name": "_tronicTokenId",
          "type": "uint256"
        },
        {
          "internalType": "uint256",
          "name": "_transferTokenId",
          "type": "uint256"
        },
        {
          "internalType": "uint256",
          "name": "_amount",
          "type": "uint256"
        },
        {
          "internalType": "address",
          "name": "_to",
          "type": "address"
        }
      ],
      "name": "transferTokensFromTronicTBA",
      "outputs": [],
      "stateMutability": "nonpayable",
      "type": "function"
    },
    {
      "inputs": [],
      "name": "tronicAdmin",
      "outputs": [
        {
          "internalType": "address",
          "name": "",
          "type": "address"
        }
      ],
      "stateMutability": "view",
      "type": "function"
    },
    {
      "inputs": [],
      "name": "tronicERC1155",
      "outputs": [
        {
          "internalType": "contract TronicToken",
          "name": "",
          "type": "address"
        }
      ],
      "stateMutability": "view",
      "type": "function"
    },
    {
      "inputs": [],
      "name": "tronicMembership",
      "outputs": [
        {
          "internalType": "contract TronicMembership",
          "name": "",
          "type": "address"
        }
      ],
      "stateMutability": "view",
      "type": "function"
    }
  ],
  "bytecode": {
    "object": "0x60806040526002805460ff60a01b1916600560a11b1790553480156200002457600080fd5b5060405162003800380380620038008339810160408190526200004791620000d0565b60008054336001600160a01b0319918216179091556001805482166001600160a01b039788161790556008805482169487169490941790935560078054841694861694909417909355600680548316918516919091179055600280549091169190921617905562000140565b80516001600160a01b0381168114620000cb57600080fd5b919050565b600080600080600060a08688031215620000e957600080fd5b620000f486620000b3565b94506200010460208701620000b3565b93506200011460408701620000b3565b92506200012460608701620000b3565b91506200013460808701620000b3565b90509295509295909350565b6136b080620001506000396000f3fe608060405234801561001057600080fd5b50600436106101c45760003560e01c806370480275116100f9578063a27b0bcb11610097578063c31fb7fe11610071578063c31fb7fe14610428578063c94329fa1461043b578063f02e33471461044e578063f936602e1461046157600080fd5b8063a27b0bcb146103ab578063a663aa54146103e3578063a91ee0dc1461041557600080fd5b80637d2405bb116100d35780637d2405bb1461035f578063862e68ff146103725780638da5cb5b146103855780638f8d1f5e1461039857600080fd5b80637048027514610326578063741a41f1146103395780637b1039991461034c57600080fd5b806324d7806c1161016657806336cb27f01161014057806336cb27f0146102cc5780633a7592f0146102e05780635286606c14610300578063641254bd1461031357600080fd5b806324d7806c1461028357806325cf1268146102a657806330fa9232146102b957600080fd5b80631585779b116101a25780631585779b146102215780631785f53c1461023457806319bd691a1461024757806320dae4cf1461026c57600080fd5b806302af73cc146101c957806306a3013d146101de57806309766da21461020e575b600080fd5b6101dc6101d736600461248f565b610474565b005b6001546101f1906001600160a01b031681565b6040516001600160a01b0390911681526020015b60405180910390f35b6101dc61021c3660046124d7565b610639565b6101dc61022f3660046124fb565b610685565b6101dc6102423660046124d7565b610876565b61025a6102553660046125ff565b6108c1565b60405160ff9091168152602001610205565b61027560035481565b604051908152602001610205565b6102966102913660046124d7565b610a31565b6040519015158152602001610205565b6101dc6102b4366004612645565b610a6b565b6008546101f1906001600160a01b031681565b60025461025a90600160a01b900460ff1681565b6102f36102ee366004612698565b610e08565b6040516102059190612701565b6002546101f1906001600160a01b031681565b6101dc6103213660046124d7565b610ef5565b6101dc6103343660046124d7565b610f41565b6101dc610347366004612698565b610f8f565b6006546101f1906001600160a01b031681565b6101dc61036d3660046124d7565b61100f565b6101dc610380366004612bae565b61105b565b6000546101f1906001600160a01b031681565b6101dc6103a63660046124fb565b61153b565b6103be6103b9366004612dec565b611760565b604080519384526001600160a01b039283166020850152911690820152606001610205565b6103f66103f1366004612f1c565b6119c5565b604080516001600160a01b039093168352602083019190915201610205565b6101dc6104233660046124d7565b611bdd565b610275610436366004612f5e565b611c29565b6007546101f1906001600160a01b031681565b61027561045c366004612fb4565b611de4565b6101dc61046f366004613003565b611f53565b3360009081526005602052604090205460ff168061049c57506001546001600160a01b031633145b6104c15760405162461bcd60e51b81526004016104b890613040565b60405180910390fd5b6000848152600460209081526040808320815160608101835281546001600160a01b03908116825260018301541693810193909352600281018054919284019161050a90613064565b80601f016020809104026020016040519081016040528092919081815260200182805461053690613064565b80156105835780601f1061055857610100808354040283529160200191610583565b820191906000526020600020905b81548152906001019060200180831161056657829003601f168201915b5050509190925250505060208101519091506001600160a01b03166105ba5760405162461bcd60e51b81526004016104b89061309e565b6020810151604051636dcb111d60e01b81526001600160a01b038681166004830152602482018690526001600160401b038516604483015290911690636dcb111d906064015b600060405180830381600087803b15801561061a57600080fd5b505af115801561062e573d6000803e3d6000fd5b505050505050505050565b6000546001600160a01b031633146106635760405162461bcd60e51b81526004016104b8906130d5565b600280546001600160a01b0319166001600160a01b0392909216919091179055565b600754604051635e4cb7a960e01b8152600481018690526000916001600160a01b031690635e4cb7a990602401602060405180830381865afa1580156106cf573d6000803e3d6000fd5b505050506040513d601f19601f820116820180604052508101906106f391906130f9565b6040516301fd3f7760e71b815233600482015290915081906001600160a01b0382169063fe9fbb8090602401602060405180830381865afa15801561073c573d6000803e3d6000fd5b505050506040513d601f19601f820116820180604052508101906107609190613116565b8061077a57503360009081526005602052604090205460ff165b8061078f57506001546001600160a01b031633145b6107ab5760405162461bcd60e51b81526004016104b890613133565b6000828487876040516024016107c49493929190613160565b60408051601f198184030181529181526020820180516001600160e01b0316637921219560e11b1790526008549051639e5d4c4960e01b81529192506001600160a01b0380851692639e5d4c49926108259216906000908690600401613198565b6000604051808303816000875af1158015610844573d6000803e3d6000fd5b505050506040513d6000823e601f3d908101601f1916820160405261086c91908101906131bf565b5050505050505050565b6000546001600160a01b031633146108a05760405162461bcd60e51b81526004016104b8906130d5565b6001600160a01b03166000908152600560205260409020805460ff19169055565b6000828152600460209081526040808320815160608101835281546001600160a01b039081168252600183015416938101939093526002810180548594938401919061090c90613064565b80601f016020809104026020016040519081016040528092919081815260200182805461093890613064565b80156109855780601f1061095a57610100808354040283529160200191610985565b820191906000526020600020905b81548152906001019060200180831161096857829003601f168201915b5050509190925250508151919250506001600160a01b03166109b95760405162461bcd60e51b81526004016104b89061309e565b805160405163c7224ecd60e01b81526001600160a01b039091169063c7224ecd906109e890869060040161322c565b602060405180830381865afa158015610a05573d6000803e3d6000fd5b505050506040513d601f19601f82011682018060405250810190610a29919061323f565b949350505050565b6001600160a01b03811660009081526005602052604081205460ff1680610a6557506001546001600160a01b038381169116145b92915050565b600754604051635e4cb7a960e01b8152600481018890526000916001600160a01b031690635e4cb7a990602401602060405180830381865afa158015610ab5573d6000803e3d6000fd5b505050506040513d601f19601f82011682018060405250810190610ad991906130f9565b6040516301fd3f7760e71b815233600482015290915081906001600160a01b0382169063fe9fbb8090602401602060405180830381865afa158015610b22573d6000803e3d6000fd5b505050506040513d601f19601f82011682018060405250810190610b469190613116565b80610b6057503360009081526005602052604090205460ff165b80610b7557506001546001600160a01b031633145b610b915760405162461bcd60e51b81526004016104b890613133565b6000878152600460209081526040808320815160608101835281546001600160a01b039081168252600183015416938101939093526002810180549192840191610bda90613064565b80601f0160208091040260200160405190810160405280929190818152602001828054610c0690613064565b8015610c535780601f10610c2857610100808354040283529160200191610c53565b820191906000526020600020905b815481529060010190602001808311610c3657829003601f168201915b5050509190925250505060208101519091506001600160a01b0316610c8a5760405162461bcd60e51b81526004016104b89061309e565b8051604051635e4cb7a960e01b8152600481018990526000916001600160a01b031690635e4cb7a990602401602060405180830381865afa158015610cd3573d6000803e3d6000fd5b505050506040513d601f19601f82011682018060405250810190610cf791906130f9565b9050600081888888604051602401610d129493929190613160565b60408051601f19818403018152918152602080830180516001600160e01b0316637921219560e11b1790528501519051919250600091610d5991908390859060240161325c565b60408051601f198184030181529181526020820180516001600160e01b0316639e5d4c4960e01b90811790915290519081529091506001600160a01b03861690639e5d4c4990610db29086906000908690600401613198565b6000604051808303816000875af1158015610dd1573d6000803e3d6000fd5b505050506040513d6000823e601f3d908101601f19168201604052610df991908101906131bf565b50505050505050505050505050565b60408051606080820183526000808352602080840182905283850183905285825260048152908490208451928301855280546001600160a01b03908116845260018201541691830191909152600281018054939492939192840191610e6c90613064565b80601f0160208091040260200160405190810160405280929190818152602001828054610e9890613064565b8015610ee55780601f10610eba57610100808354040283529160200191610ee5565b820191906000526020600020905b815481529060010190602001808311610ec857829003601f168201915b5050505050815250509050919050565b6000546001600160a01b03163314610f1f5760405162461bcd60e51b81526004016104b8906130d5565b600780546001600160a01b0319166001600160a01b0392909216919091179055565b6000546001600160a01b03163314610f6b5760405162461bcd60e51b81526004016104b8906130d5565b6001600160a01b03166000908152600560205260409020805460ff19166001179055565b3360009081526005602052604090205460ff1680610fb757506001546001600160a01b031633145b610fd35760405162461bcd60e51b81526004016104b890613040565b600081815260046020526040812080546001600160a01b0319908116825560018201805490911690559061100a600283018261240d565b505050565b6000546001600160a01b031633146110395760405162461bcd60e51b81526004016104b8906130d5565b600880546001600160a01b0319166001600160a01b0392909216919091179055565b3360009081526005602052604090205460ff168061108357506001546001600160a01b031633145b61109f5760405162461bcd60e51b81526004016104b890613040565b825185511480156110b1575081518351145b80156110be575083518251145b80156110cb575080518451145b6111265760405162461bcd60e51b815260206004820152602660248201527f4f7574657220617272617973206d7573742068617665207468652073616d65206044820152650d8cadccee8d60d31b60648201526084016104b8565b60005b85518110156115335760006004600088848151811061114a5761114a613289565b6020908102919091018101518252818101929092526040908101600020815160608101835281546001600160a01b03908116825260018301541693810193909352600281018054919284019161119f90613064565b80601f01602080910402602001604051908101604052809291908181526020018280546111cb90613064565b80156112185780601f106111ed57610100808354040283529160200191611218565b820191906000526020600020905b8154815290600101906020018083116111fb57829003601f168201915b505050505081525050905060005b86838151811061123857611238613289565b60200260200101515181101561151e57600087848151811061125c5761125c613289565b6020026020010151828151811061127557611275613289565b6020026020010151905060005b85858151811061129457611294613289565b602002602001015183815181106112ad576112ad613289565b6020026020010151518110156115095760008686815181106112d1576112d1613289565b602002602001015184815181106112ea576112ea613289565b6020026020010151828151811061130357611303613289565b6020026020010151600181111561131c5761131c61329f565b036114225783602001516001600160a01b0316631f7fdffa838a888151811061134757611347613289565b6020026020010151868151811061136057611360613289565b6020026020010151848151811061137957611379613289565b60200260200101518a898151811061139357611393613289565b602002602001015187815181106113ac576113ac613289565b602002602001015185815181106113c5576113c5613289565b60200260200101516040518463ffffffff1660e01b81526004016113eb939291906132f0565b600060405180830381600087803b15801561140557600080fd5b505af1158015611419573d6000803e3d6000fd5b505050506114f7565b600186868151811061143657611436613289565b6020026020010151848151811061144f5761144f613289565b6020026020010151828151811061146857611468613289565b602002602001015160018111156114815761148161329f565b036114f75783516040516335313c2160e11b81526001600160a01b03848116600483015290911690636a6278429060240160408051808303816000875af11580156114d0573d6000803e3d6000fd5b505050506040513d601f19601f820116820180604052508101906114f49190613342565b50505b8061150181613370565b915050611282565b5050808061151690613370565b915050611226565b5050808061152b90613370565b915050611129565b505050505050565b600754604051635e4cb7a960e01b8152600481018690526000916001600160a01b031690635e4cb7a990602401602060405180830381865afa158015611585573d6000803e3d6000fd5b505050506040513d601f19601f820116820180604052508101906115a991906130f9565b6040516301fd3f7760e71b815233600482015290915081906001600160a01b0382169063fe9fbb8090602401602060405180830381865afa1580156115f2573d6000803e3d6000fd5b505050506040513d601f19601f820116820180604052508101906116169190613116565b8061163057503360009081526005602052604090205460ff165b8061164557506001546001600160a01b031633145b6116615760405162461bcd60e51b81526004016104b890613133565b6000858152600460205260409020546001600160a01b0316806116965760405162461bcd60e51b81526004016104b89061309e565b6040516001600160a01b038085166024830152851660448201526064810186905260009060840160408051601f198184030181529181526020820180516001600160e01b0316632142170760e11b17905251639e5d4c4960e01b81529091506001600160a01b03841690639e5d4c49906117199085906000908690600401613198565b6000604051808303816000875af1158015611738573d6000803e3d6000fd5b505050506040513d6000823e601f3d908101601f1916820160405261062e91908101906131bf565b336000908152600560205260408120548190819060ff168061178c57506001546001600160a01b031633145b6117a85760405162461bcd60e51b81526004016104b890613040565b845186511480156117ba575083518651145b6118155760405162461bcd60e51b815260206004820152602660248201527f496e70757420617272617973206d7573742068617665207468652073616d65206044820152650d8cadccee8d60d31b60648201526084016104b8565b6003805490600061182583613370565b9190505592506118398c8c8c8c8c8c6120d2565b915061184361217e565b90506040518060600160405280836001600160a01b03168152602001826001600160a01b031681526020018d8152506004600085815260200190815260200160002060008201518160000160006101000a8154816001600160a01b0302191690836001600160a01b0316021790555060208201518160010160006101000a8154816001600160a01b0302191690836001600160a01b0316021790555060408201518160020190816118f491906133dd565b5050865115905061197557600780546001600160a01b0319166001600160a01b038416908117909155604051635800be9560e01b8152635800be9590611942908990899089906004016134ce565b600060405180830381600087803b15801561195c57600080fd5b505af1158015611970573d6000803e3d6000fd5b505050505b806001600160a01b0316826001600160a01b0316847f52350853cf11d8d10dce184f63da36faebfcc34d29fd9f625cde2add90fe4aeb60405160405180910390a499509950999650505050505050565b33600090815260056020526040812054819060ff16806119ef57506001546001600160a01b031633145b611a0b5760405162461bcd60e51b81526004016104b890613040565b6000848152600460209081526040808320815160608101835281546001600160a01b039081168252600183015416938101939093526002810180549192840191611a5490613064565b80601f0160208091040260200160405190810160405280929190818152602001828054611a8090613064565b8015611acd5780601f10611aa257610100808354040283529160200191611acd565b820191906000526020600020905b815481529060010190602001808311611ab057829003601f168201915b5050509190925250508151919250506001600160a01b0316611b015760405162461bcd60e51b81526004016104b89061309e565b80516040516335313c2160e11b81526001600160a01b0388811660048301526000928392911690636a6278429060240160408051808303816000875af1158015611b4f573d6000803e3d6000fd5b505050506040513d601f19601f82011682018060405250810190611b739190613342565b9150915080826001600160a01b031684600001516001600160a01b03167f98968292e2048513dccdcaaff0b0b0f3aae3b58120170f9039a5dd1e32d39d1e60405160405180910390a460ff861615611bd057611bd08787836121fa565b9097909650945050505050565b6000546001600160a01b03163314611c075760405162461bcd60e51b81526004016104b8906130d5565b600680546001600160a01b0319166001600160a01b0392909216919091179055565b3360009081526005602052604081205460ff1680611c5157506001546001600160a01b031633145b611c6d5760405162461bcd60e51b81526004016104b890613040565b6000828152600460209081526040808320815160608101835281546001600160a01b039081168252600183015416938101939093526002810180549192840191611cb690613064565b80601f0160208091040260200160405190810160405280929190818152602001828054611ce290613064565b8015611d2f5780601f10611d0457610100808354040283529160200191611d2f565b820191906000526020600020905b815481529060010190602001808311611d1257829003601f168201915b5050509190925250505060208101519091506001600160a01b0316611d665760405162461bcd60e51b81526004016104b89061309e565b80602001516001600160a01b0316632c54054b86866040518363ffffffff1660e01b8152600401611d98929190613585565b6020604051808303816000875af1158015611db7573d6000803e3d6000fd5b505050506040513d601f19601f82011682018060405250810190611ddb91906135b0565b95945050505050565b3360009081526005602052604081205460ff1680611e0c57506001546001600160a01b031633145b611e285760405162461bcd60e51b81526004016104b890613040565b6000828152600460209081526040808320815160608101835281546001600160a01b039081168252600183015416938101939093526002810180549192840191611e7190613064565b80601f0160208091040260200160405190810160405280929190818152602001828054611e9d90613064565b8015611eea5780601f10611ebf57610100808354040283529160200191611eea565b820191906000526020600020905b815481529060010190602001808311611ecd57829003601f168201915b5050509190925250505060208101519091506001600160a01b0316611f215760405162461bcd60e51b81526004016104b89061309e565b80602001516001600160a01b0316632dfb9ff086866040518363ffffffff1660e01b8152600401611d989291906135c9565b3360009081526005602052604090205460ff1680611f7b57506001546001600160a01b031633145b611f975760405162461bcd60e51b81526004016104b890613040565b6000848152600460209081526040808320815160608101835281546001600160a01b039081168252600183015416938101939093526002810180549192840191611fe090613064565b80601f016020809104026020016040519081016040528092919081815260200182805461200c90613064565b80156120595780601f1061202e57610100808354040283529160200191612059565b820191906000526020600020905b81548152906001019060200180831161203c57829003601f168201915b5050509190925250505060208101519091506001600160a01b03166120905760405162461bcd60e51b81526004016104b89061309e565b6020810151604051633785850d60e21b8152600481018590526001600160a01b038681166024830152604482018590529091169063de16143490606401610600565b6007546000906120ea906001600160a01b031661239b565b600254600654600154604051624364cb60e91b81529394506001600160a01b03808616946386c99600946121429483821694908416938f938f938f93600160a01b90910460ff16928f928f928f9216906004016135eb565b600060405180830381600087803b15801561215c57600080fd5b505af1158015612170573d6000803e3d6000fd5b505050509695505050505050565b600854600090612196906001600160a01b031661239b565b60015460405163189acdbd60e31b81526001600160a01b03918216600482015291925082169063c4d66de890602401600060405180830381600087803b1580156121df57600080fd5b505af11580156121f3573d6000803e3d6000fd5b5050505090565b6000838152600460209081526040808320815160608101835281546001600160a01b03908116825260018301541693810193909352600281018054919284019161224390613064565b80601f016020809104026020016040519081016040528092919081815260200182805461226f90613064565b80156122bc5780601f10612291576101008083540402835291602001916122bc565b820191906000526020600020905b81548152906001019060200180831161229f57829003601f168201915b5050509190925250508151919250506001600160a01b03166122f05760405162461bcd60e51b81526004016104b89061309e565b8051604051630da0305560e31b81526004810184905260ff851660248201526001600160a01b0390911690636d0182a890604401600060405180830381600087803b15801561233e57600080fd5b505af1158015612352573d6000803e3d6000fd5b505050508260ff168282600001516001600160a01b03167f637c3e6d08e0c8cf7b0a77066ef65bc3623f4bd93404a1dfda6ba2a8fee8d33760405160405180910390a450505050565b6000763d602d80600a3d3981f3363d3d373d3d3d363d730000008260601b60e81c176000526e5af43d82803e903d91602b57fd5bf38260781b17602052603760096000f090506001600160a01b038116612408576040516330be1a3d60e21b815260040160405180910390fd5b919050565b50805461241990613064565b6000825580601f10612429575050565b601f016020900490600052602060002090810190612447919061244a565b50565b5b8082111561245f576000815560010161244b565b5090565b6001600160a01b038116811461244757600080fd5b80356001600160401b038116811461240857600080fd5b600080600080608085870312156124a557600080fd5b8435935060208501356124b781612463565b9250604085013591506124cc60608601612478565b905092959194509250565b6000602082840312156124e957600080fd5b81356124f481612463565b9392505050565b6000806000806080858703121561251157600080fd5b843593506020850135925060408501359150606085013561253181612463565b939692955090935050565b634e487b7160e01b600052604160045260246000fd5b604051601f8201601f191681016001600160401b038111828210171561257a5761257a61253c565b604052919050565b60006001600160401b0382111561259b5761259b61253c565b50601f01601f191660200190565b600082601f8301126125ba57600080fd5b81356125cd6125c882612582565b612552565b8181528460208386010111156125e257600080fd5b816020850160208301376000918101602001919091529392505050565b6000806040838503121561261257600080fd5b8235915060208301356001600160401b0381111561262f57600080fd5b61263b858286016125a9565b9150509250929050565b60008060008060008060c0878903121561265e57600080fd5b863595506020870135945060408701359350606087013561267e81612463565b9598949750929560808101359460a0909101359350915050565b6000602082840312156126aa57600080fd5b5035919050565b60005b838110156126cc5781810151838201526020016126b4565b50506000910152565b600081518084526126ed8160208601602086016126b1565b601f01601f19169290920160200192915050565b60208152600060018060a01b03808451166020840152806020850151166040840152506040830151606080840152610a2960808401826126d5565b60006001600160401b038211156127555761275561253c565b5060051b60200190565b600082601f83011261277057600080fd5b813560206127806125c88361273c565b82815260059290921b8401810191818101908684111561279f57600080fd5b8286015b848110156127ba57803583529183019183016127a3565b509695505050505050565b600082601f8301126127d657600080fd5b813560206127e66125c88361273c565b828152600592831b850182019282820191908785111561280557600080fd5b8387015b858110156128a45780356001600160401b038111156128285760008081fd5b8801603f81018a1361283a5760008081fd5b85810135604061284c6125c88361273c565b82815291851b8301810191888101908d8411156128695760008081fd5b938201935b83851015612893578435925061288383612463565b828252938901939089019061286e565b885250505093850193508401612809565b5090979650505050505050565b600082601f8301126128c257600080fd5b6128cf6125c8833561273c565b82358082526020808301929160051b8501018510156128ed57600080fd5b602084015b6020853560051b860101811015612a34576001600160401b038135111561291857600080fd5b8035850186603f82011261292b57600080fd5b61293b6125c8602083013561273c565b602082810135808352908201919060051b830160400189101561295d57600080fd5b604083015b6040602085013560051b850101811015612a23576001600160401b038135111561298b57600080fd5b803584018a605f82011261299e57600080fd5b6129ae6125c8604083013561273c565b604082013580825260208201919060051b83016060018d8111156129d157600080fd5b606084015b81811015612a11576001600160401b03813511156129f357600080fd5b612a038f6060833588010161275f565b8452602093840193016129d6565b50508552505060209283019201612962565b5085525050602092830192016128f2565b50949350505050565b600082601f830112612a4e57600080fd5b612a5b6125c8833561273c565b82358082526020808301929160051b85010185811115612a7a57600080fd5b602085015b81811015612ba3576001600160401b0381351115612a9c57600080fd5b8035860187603f820112612aaf57600080fd5b6020810135612ac06125c88261273c565b81815260059190911b82016040019060208101908a831115612ae157600080fd5b604084015b83811015612b8d576001600160401b0381351115612b0357600080fd5b803585018c605f820112612b1657600080fd5b6040810135612b276125c88261273c565b81815260059190911b82016060019060208101908f831115612b4857600080fd5b6060840193505b82841015612b78576002843510612b6557600080fd5b8335825260209384019390910190612b4f565b86525050602093840193919091019050612ae6565b5087525050602094850194919091019050612a7f565b509095945050505050565b600080600080600060a08688031215612bc657600080fd5b85356001600160401b0380821115612bdd57600080fd5b612be989838a0161275f565b96506020880135915080821115612bff57600080fd5b612c0b89838a016127c5565b95506040880135915080821115612c2157600080fd5b612c2d89838a016128b1565b94506060880135915080821115612c4357600080fd5b612c4f89838a016128b1565b93506080880135915080821115612c6557600080fd5b50612c7288828901612a3d565b9150509295509295909350565b801515811461244757600080fd5b803561240881612c7f565b600082601f830112612ca957600080fd5b81356020612cb96125c88361273c565b82815260059290921b84018101918181019086841115612cd857600080fd5b8286015b848110156127ba5780356001600160401b03811115612cfb5760008081fd5b612d098986838b01016125a9565b845250918301918301612cdc565b600082601f830112612d2857600080fd5b81356020612d386125c88361273c565b82815260059290921b84018101918181019086841115612d5757600080fd5b8286015b848110156127ba5780356001600160801b0381168114612d7b5760008081fd5b8352918301918301612d5b565b600082601f830112612d9957600080fd5b81356020612da96125c88361273c565b82815260059290921b84018101918181019086841115612dc857600080fd5b8286015b848110156127ba578035612ddf81612c7f565b8352918301918301612dcc565b60008060008060008060008060006101208a8c031215612e0b57600080fd5b89356001600160401b0380821115612e2257600080fd5b612e2e8d838e016125a9565b9a5060208c0135915080821115612e4457600080fd5b612e508d838e016125a9565b995060408c0135915080821115612e6657600080fd5b612e728d838e016125a9565b985060608c01359750612e8760808d01612c8d565b9650612e9560a08d01612c8d565b955060c08c0135915080821115612eab57600080fd5b612eb78d838e01612c98565b945060e08c0135915080821115612ecd57600080fd5b612ed98d838e01612d17565b93506101008c0135915080821115612ef057600080fd5b50612efd8c828d01612d88565b9150509295985092959850929598565b60ff8116811461244757600080fd5b600080600060608486031215612f3157600080fd5b8335612f3c81612463565b9250602084013591506040840135612f5381612f0d565b809150509250925092565b600080600060608486031215612f7357600080fd5b83356001600160401b03811115612f8957600080fd5b612f95868287016125a9565b935050612fa460208501612478565b9150604084013590509250925092565b600080600060608486031215612fc957600080fd5b8335925060208401356001600160401b03811115612fe657600080fd5b612ff2868287016125a9565b925050604084013590509250925092565b6000806000806080858703121561301957600080fd5b84359350602085013561302b81612463565b93969395505050506040820135916060013590565b6020808252600a908201526927b7363c9030b236b4b760b11b604082015260600190565b600181811c9082168061307857607f821691505b60208210810361309857634e487b7160e01b600052602260045260246000fd5b50919050565b60208082526019908201527f4d656d6265727368697020646f6573206e6f7420657869737400000000000000604082015260600190565b6020808252600a908201526927b7363c9037bbb732b960b11b604082015260600190565b60006020828403121561310b57600080fd5b81516124f481612463565b60006020828403121561312857600080fd5b81516124f481612c7f565b6020808252601390820152722ab730baba3437b934bd32b21031b0b63632b960691b604082015260600190565b6001600160a01b0394851681529290931660208301526040820152606081019190915260a06080820181905260009082015260c00190565b60018060a01b0384168152826020820152606060408201526000611ddb60608301846126d5565b6000602082840312156131d157600080fd5b81516001600160401b038111156131e757600080fd5b8201601f810184136131f857600080fd5b80516132066125c882612582565b81815285602083850101111561321b57600080fd5b611ddb8260208301602086016126b1565b6020815260006124f460208301846126d5565b60006020828403121561325157600080fd5b81516124f481612f0d565b6001600160a01b038416815260ff83166020820152606060408201819052600090611ddb908301846126d5565b634e487b7160e01b600052603260045260246000fd5b634e487b7160e01b600052602160045260246000fd5b600081518084526020808501945080840160005b838110156132e5578151875295820195908201906001016132c9565b509495945050505050565b6001600160a01b0384168152608060208201819052600090613314908301856132b5565b828103604084015261332681856132b5565b8381036060909401939093525050600081526020019392505050565b6000806040838503121561335557600080fd5b825161336081612463565b6020939093015192949293505050565b60006001820161339057634e487b7160e01b600052601160045260246000fd5b5060010190565b601f82111561100a57600081815260208120601f850160051c810160208610156133be5750805b601f850160051c820191505b81811015611533578281556001016133ca565b81516001600160401b038111156133f6576133f661253c565b61340a816134048454613064565b84613397565b602080601f83116001811461343f57600084156134275750858301515b600019600386901b1c1916600185901b178555611533565b600085815260208120601f198616915b8281101561346e5788860151825594840194600190910190840161344f565b508582101561348c5787850151600019600388901b60f8161c191681555b5050505050600190811b01905550565b600081518084526020808501945080840160005b838110156132e55781511515875295820195908201906001016134b0565b6000606082016060835280865180835260808501915060808160051b8601019250602080890160005b8381101561352557607f198887030185526135138683516126d5565b955093820193908201906001016134f7565b50508584038187015287518085528882019482019350915060005b828110156135655784516001600160801b031684529381019392810192600101613540565b505050838103604085015261357a818661349c565b979650505050505050565b60408152600061359860408301856126d5565b90506001600160401b03831660208301529392505050565b6000602082840312156135c257600080fd5b5051919050565b6001600160401b0383168152604060208201526000610a2960408301846126d5565b6001600160a01b038b811682528a81166020830152610140604083018190526000916136198483018d6126d5565b9150838203606085015261362d828c6126d5565b91508382036080850152613641828b6126d5565b60ff9990991660a085015260c0840197909752505092151560e0840152901515610100830152909116610120909101529594505050505056fea26469706673582212207429501182e859619e1554757bf454d220ac094b6d0660be83c0f0ecfa1ef80464736f6c63430008150033",
    "linkReferences": {}
  },
  "methodIdentifiers": {
    "addAdmin(address)": "70480275",
    "batchProcess(uint256[],address[][],uint256[][][][],uint256[][][][],uint8[][][])": "862e68ff",
    "createFungibleTokenType(uint256,string,uint256)": "f02e3347",
    "createNonFungibleTokenType(string,uint64,uint256)": "c31fb7fe",
    "deployMembership(string,string,string,uint256,bool,bool,string[],uint128[],bool[])": "a27b0bcb",
    "getMembershipInfo(uint256)": "3a7592f0",
    "getTierIndexByTierId(uint256,string)": "19bd691a",
    "isAdmin(address)": "24d7806c",
    "maxTiersPerMembership()": "36cb27f0",
    "membershipCounter()": "20dae4cf",
    "mintFungibleToken(uint256,address,uint256,uint64)": "02af73cc",
    "mintMembership(address,uint256,uint8)": "a663aa54",
    "mintNonFungibleToken(uint256,address,uint256,uint256)": "f936602e",
    "owner()": "8da5cb5b",
    "registry()": "7b103999",
    "removeAdmin(address)": "1785f53c",
    "removeMembership(uint256)": "741a41f1",
    "setAccountImplementation(address)": "09766da2",
    "setERC1155Implementation(address)": "7d2405bb",
    "setERC721Implementation(address)": "641254bd",
    "setRegistry(address)": "a91ee0dc",
    "tbaAccountImplementation()": "5286606c",
    "transferMembershipFromTronicTBA(uint256,uint256,uint256,address)": "8f8d1f5e",
    "transferTokensFromMembershipTBA(uint256,uint256,uint256,address,uint256,uint256)": "25cf1268",
    "transferTokensFromTronicTBA(uint256,uint256,uint256,address)": "1585779b",
    "tronicAdmin()": "06a3013d",
    "tronicERC1155()": "30fa9232",
    "tronicMembership()": "c94329fa"
  },
  "id": 56
}