{
  "abi": [
    {
      "inputs": [],
      "stateMutability": "nonpayable",
      "type": "constructor"
    },
    {
      "inputs": [],
      "name": "AlreadyInitialized",
      "type": "error"
    },
    {
      "inputs": [
        {
          "internalType": "address",
          "name": "sender",
          "type": "address"
        },
        {
          "internalType": "uint256",
          "name": "balance",
          "type": "uint256"
        },
        {
          "internalType": "uint256",
          "name": "needed",
          "type": "uint256"
        },
        {
          "internalType": "uint256",
          "name": "tokenId",
          "type": "uint256"
        }
      ],
      "name": "ERC1155InsufficientBalance",
      "type": "error"
    },
    {
      "inputs": [
        {
          "internalType": "address",
          "name": "approver",
          "type": "address"
        }
      ],
      "name": "ERC1155InvalidApprover",
      "type": "error"
    },
    {
      "inputs": [
        {
          "internalType": "uint256",
          "name": "idsLength",
          "type": "uint256"
        },
        {
          "internalType": "uint256",
          "name": "valuesLength",
          "type": "uint256"
        }
      ],
      "name": "ERC1155InvalidArrayLength",
      "type": "error"
    },
    {
      "inputs": [
        {
          "internalType": "address",
          "name": "operator",
          "type": "address"
        }
      ],
      "name": "ERC1155InvalidOperator",
      "type": "error"
    },
    {
      "inputs": [
        {
          "internalType": "address",
          "name": "receiver",
          "type": "address"
        }
      ],
      "name": "ERC1155InvalidReceiver",
      "type": "error"
    },
    {
      "inputs": [
        {
          "internalType": "address",
          "name": "sender",
          "type": "address"
        }
      ],
      "name": "ERC1155InvalidSender",
      "type": "error"
    },
    {
      "inputs": [
        {
          "internalType": "address",
          "name": "operator",
          "type": "address"
        },
        {
          "internalType": "address",
          "name": "owner",
          "type": "address"
        }
      ],
      "name": "ERC1155MissingApprovalForAll",
      "type": "error"
    },
    {
      "inputs": [],
      "name": "NotInitializing",
      "type": "error"
    },
    {
      "anonymous": false,
      "inputs": [
        {
          "indexed": true,
          "internalType": "address",
          "name": "account",
          "type": "address"
        },
        {
          "indexed": true,
          "internalType": "address",
          "name": "operator",
          "type": "address"
        },
        {
          "indexed": false,
          "internalType": "bool",
          "name": "approved",
          "type": "bool"
        }
      ],
      "name": "ApprovalForAll",
      "type": "event"
    },
    {
      "anonymous": false,
      "inputs": [
        {
          "indexed": true,
          "internalType": "uint256",
          "name": "typeId",
          "type": "uint256"
        },
        {
          "indexed": false,
          "internalType": "uint64",
          "name": "maxSupply",
          "type": "uint64"
        },
        {
          "indexed": false,
          "internalType": "string",
          "name": "uri",
          "type": "string"
        }
      ],
      "name": "FungibleTokenTypeCreated",
      "type": "event"
    },
    {
      "anonymous": false,
      "inputs": [
        {
          "indexed": false,
          "internalType": "uint64",
          "name": "version",
          "type": "uint64"
        }
      ],
      "name": "Initialized",
      "type": "event"
    },
    {
      "anonymous": false,
      "inputs": [
        {
          "indexed": true,
          "internalType": "uint256",
          "name": "typeId",
          "type": "uint256"
        },
        {
          "indexed": false,
          "internalType": "uint64",
          "name": "maxMintable",
          "type": "uint64"
        },
        {
          "indexed": false,
          "internalType": "string",
          "name": "baseURI",
          "type": "string"
        }
      ],
      "name": "NFTokenTypeCreated",
      "type": "event"
    },
    {
      "anonymous": false,
      "inputs": [
        {
          "indexed": true,
          "internalType": "address",
          "name": "operator",
          "type": "address"
        },
        {
          "indexed": true,
          "internalType": "address",
          "name": "from",
          "type": "address"
        },
        {
          "indexed": true,
          "internalType": "address",
          "name": "to",
          "type": "address"
        },
        {
          "indexed": false,
          "internalType": "uint256[]",
          "name": "ids",
          "type": "uint256[]"
        },
        {
          "indexed": false,
          "internalType": "uint256[]",
          "name": "values",
          "type": "uint256[]"
        }
      ],
      "name": "TransferBatch",
      "type": "event"
    },
    {
      "anonymous": false,
      "inputs": [
        {
          "indexed": true,
          "internalType": "address",
          "name": "operator",
          "type": "address"
        },
        {
          "indexed": true,
          "internalType": "address",
          "name": "from",
          "type": "address"
        },
        {
          "indexed": true,
          "internalType": "address",
          "name": "to",
          "type": "address"
        },
        {
          "indexed": false,
          "internalType": "uint256",
          "name": "id",
          "type": "uint256"
        },
        {
          "indexed": false,
          "internalType": "uint256",
          "name": "value",
          "type": "uint256"
        }
      ],
      "name": "TransferSingle",
      "type": "event"
    },
    {
      "anonymous": false,
      "inputs": [
        {
          "indexed": false,
          "internalType": "string",
          "name": "value",
          "type": "string"
        },
        {
          "indexed": true,
          "internalType": "uint256",
          "name": "id",
          "type": "uint256"
        }
      ],
      "name": "URI",
      "type": "event"
    },
    {
      "inputs": [
        {
          "internalType": "address",
          "name": "admin",
          "type": "address"
        }
      ],
      "name": "addAdmin",
      "outputs": [],
      "stateMutability": "nonpayable",
      "type": "function"
    },
    {
      "inputs": [
        {
          "internalType": "address",
          "name": "account",
          "type": "address"
        },
        {
          "internalType": "uint256",
          "name": "id",
          "type": "uint256"
        }
      ],
      "name": "balanceOf",
      "outputs": [
        {
          "internalType": "uint256",
          "name": "",
          "type": "uint256"
        }
      ],
      "stateMutability": "view",
      "type": "function"
    },
    {
      "inputs": [
        {
          "internalType": "address[]",
          "name": "accounts",
          "type": "address[]"
        },
        {
          "internalType": "uint256[]",
          "name": "ids",
          "type": "uint256[]"
        }
      ],
      "name": "balanceOfBatch",
      "outputs": [
        {
          "internalType": "uint256[]",
          "name": "",
          "type": "uint256[]"
        }
      ],
      "stateMutability": "view",
      "type": "function"
    },
    {
      "inputs": [
        {
          "internalType": "address",
          "name": "account",
          "type": "address"
        },
        {
          "internalType": "uint256",
          "name": "id",
          "type": "uint256"
        },
        {
          "internalType": "uint256",
          "name": "amount",
          "type": "uint256"
        }
      ],
      "name": "burn",
      "outputs": [],
      "stateMutability": "nonpayable",
      "type": "function"
    },
    {
      "inputs": [
        {
          "internalType": "uint64",
          "name": "_maxSupply",
          "type": "uint64"
        },
        {
          "internalType": "string",
          "name": "_uri",
          "type": "string"
        }
      ],
      "name": "createFungibleType",
      "outputs": [
        {
          "internalType": "uint256",
          "name": "fungibleTokenId",
          "type": "uint256"
        }
      ],
      "stateMutability": "nonpayable",
      "type": "function"
    },
    {
      "inputs": [
        {
          "internalType": "string",
          "name": "baseURI",
          "type": "string"
        },
        {
          "internalType": "uint64",
          "name": "maxMintable",
          "type": "uint64"
        }
      ],
      "name": "createNFTType",
      "outputs": [
        {
          "internalType": "uint256",
          "name": "nftTypeId",
          "type": "uint256"
        }
      ],
      "stateMutability": "nonpayable",
      "type": "function"
    },
    {
      "inputs": [
        {
          "internalType": "uint256",
          "name": "typeId",
          "type": "uint256"
        }
      ],
      "name": "getFungibleTokenInfo",
      "outputs": [
        {
          "components": [
            {
              "internalType": "uint64",
              "name": "maxSupply",
              "type": "uint64"
            },
            {
              "internalType": "uint64",
              "name": "totalMinted",
              "type": "uint64"
            },
            {
              "internalType": "uint64",
              "name": "totalBurned",
              "type": "uint64"
            },
            {
              "internalType": "string",
              "name": "uri",
              "type": "string"
            }
          ],
          "internalType": "struct TronicToken.FungibleTokenInfo",
          "name": "",
          "type": "tuple"
        }
      ],
      "stateMutability": "view",
      "type": "function"
    },
    {
      "inputs": [
        {
          "internalType": "uint256",
          "name": "tokenId",
          "type": "uint256"
        }
      ],
      "name": "getLevel",
      "outputs": [
        {
          "internalType": "uint256",
          "name": "",
          "type": "uint256"
        }
      ],
      "stateMutability": "view",
      "type": "function"
    },
    {
      "inputs": [
        {
          "internalType": "uint256",
          "name": "typeId",
          "type": "uint256"
        }
      ],
      "name": "getNFTokenInfo",
      "outputs": [
        {
          "components": [
            {
              "internalType": "uint64",
              "name": "startingTokenId",
              "type": "uint64"
            },
            {
              "internalType": "uint64",
              "name": "totalMinted",
              "type": "uint64"
            },
            {
              "internalType": "uint64",
              "name": "maxMintable",
              "type": "uint64"
            },
            {
              "internalType": "string",
              "name": "baseURI",
              "type": "string"
            }
          ],
          "internalType": "struct TronicToken.NFTokenInfo",
          "name": "",
          "type": "tuple"
        }
      ],
      "stateMutability": "view",
      "type": "function"
    },
    {
      "inputs": [
        {
          "internalType": "uint256",
          "name": "typeId",
          "type": "uint256"
        }
      ],
      "name": "getNextTokenIdForType",
      "outputs": [
        {
          "internalType": "uint256",
          "name": "",
          "type": "uint256"
        }
      ],
      "stateMutability": "view",
      "type": "function"
    },
    {
      "inputs": [
        {
          "internalType": "address",
          "name": "_tronicAdmin",
          "type": "address"
        }
      ],
      "name": "initialize",
      "outputs": [],
      "stateMutability": "nonpayable",
      "type": "function"
    },
    {
      "inputs": [
        {
          "internalType": "address",
          "name": "admin",
          "type": "address"
        }
      ],
      "name": "isAdmin",
      "outputs": [
        {
          "internalType": "bool",
          "name": "",
          "type": "bool"
        }
      ],
      "stateMutability": "view",
      "type": "function"
    },
    {
      "inputs": [
        {
          "internalType": "address",
          "name": "account",
          "type": "address"
        },
        {
          "internalType": "address",
          "name": "operator",
          "type": "address"
        }
      ],
      "name": "isApprovedForAll",
      "outputs": [
        {
          "internalType": "bool",
          "name": "",
          "type": "bool"
        }
      ],
      "stateMutability": "view",
      "type": "function"
    },
    {
      "inputs": [
        {
          "internalType": "address",
          "name": "to",
          "type": "address"
        },
        {
          "internalType": "uint256[]",
          "name": "typeIds",
          "type": "uint256[]"
        },
        {
          "internalType": "uint256[]",
          "name": "amounts",
          "type": "uint256[]"
        },
        {
          "internalType": "bytes",
          "name": "data",
          "type": "bytes"
        }
      ],
      "name": "mintBatch",
      "outputs": [],
      "stateMutability": "nonpayable",
      "type": "function"
    },
    {
      "inputs": [
        {
          "internalType": "address",
          "name": "to",
          "type": "address"
        },
        {
          "internalType": "uint256",
          "name": "id",
          "type": "uint256"
        },
        {
          "internalType": "uint64",
          "name": "amount",
          "type": "uint64"
        }
      ],
      "name": "mintFungible",
      "outputs": [],
      "stateMutability": "nonpayable",
      "type": "function"
    },
    {
      "inputs": [
        {
          "internalType": "uint256",
          "name": "typeId",
          "type": "uint256"
        },
        {
          "internalType": "address",
          "name": "to",
          "type": "address"
        }
      ],
      "name": "mintNFT",
      "outputs": [],
      "stateMutability": "nonpayable",
      "type": "function"
    },
    {
      "inputs": [
        {
          "internalType": "uint256",
          "name": "typeId",
          "type": "uint256"
        },
        {
          "internalType": "address",
          "name": "to",
          "type": "address"
        },
        {
          "internalType": "uint256",
          "name": "amount",
          "type": "uint256"
        }
      ],
      "name": "mintNFTs",
      "outputs": [],
      "stateMutability": "nonpayable",
      "type": "function"
    },
    {
      "inputs": [],
      "name": "name",
      "outputs": [
        {
          "internalType": "string",
          "name": "",
          "type": "string"
        }
      ],
      "stateMutability": "view",
      "type": "function"
    },
    {
      "inputs": [
        {
          "internalType": "uint256",
          "name": "",
          "type": "uint256"
        }
      ],
      "name": "nftOwners",
      "outputs": [
        {
          "internalType": "address",
          "name": "",
          "type": "address"
        }
      ],
      "stateMutability": "view",
      "type": "function"
    },
    {
      "inputs": [],
      "name": "owner",
      "outputs": [
        {
          "internalType": "address",
          "name": "",
          "type": "address"
        }
      ],
      "stateMutability": "view",
      "type": "function"
    },
    {
      "inputs": [
        {
          "internalType": "address",
          "name": "admin",
          "type": "address"
        }
      ],
      "name": "removeAdmin",
      "outputs": [],
      "stateMutability": "nonpayable",
      "type": "function"
    },
    {
      "inputs": [
        {
          "internalType": "address",
          "name": "from",
          "type": "address"
        },
        {
          "internalType": "address",
          "name": "to",
          "type": "address"
        },
        {
          "internalType": "uint256[]",
          "name": "ids",
          "type": "uint256[]"
        },
        {
          "internalType": "uint256[]",
          "name": "values",
          "type": "uint256[]"
        },
        {
          "internalType": "bytes",
          "name": "data",
          "type": "bytes"
        }
      ],
      "name": "safeBatchTransferFrom",
      "outputs": [],
      "stateMutability": "nonpayable",
      "type": "function"
    },
    {
      "inputs": [
        {
          "internalType": "address",
          "name": "from",
          "type": "address"
        },
        {
          "internalType": "address",
          "name": "to",
          "type": "address"
        },
        {
          "internalType": "uint256",
          "name": "id",
          "type": "uint256"
        },
        {
          "internalType": "uint256",
          "name": "value",
          "type": "uint256"
        },
        {
          "internalType": "bytes",
          "name": "data",
          "type": "bytes"
        }
      ],
      "name": "safeTransferFrom",
      "outputs": [],
      "stateMutability": "nonpayable",
      "type": "function"
    },
    {
      "inputs": [
        {
          "internalType": "address",
          "name": "operator",
          "type": "address"
        },
        {
          "internalType": "bool",
          "name": "approved",
          "type": "bool"
        }
      ],
      "name": "setApprovalForAll",
      "outputs": [],
      "stateMutability": "nonpayable",
      "type": "function"
    },
    {
      "inputs": [
        {
          "internalType": "uint256",
          "name": "tokenId",
          "type": "uint256"
        },
        {
          "internalType": "uint256",
          "name": "level",
          "type": "uint256"
        }
      ],
      "name": "setLevel",
      "outputs": [],
      "stateMutability": "nonpayable",
      "type": "function"
    },
    {
      "inputs": [
        {
          "internalType": "bytes4",
          "name": "interfaceId",
          "type": "bytes4"
        }
      ],
      "name": "supportsInterface",
      "outputs": [
        {
          "internalType": "bool",
          "name": "",
          "type": "bool"
        }
      ],
      "stateMutability": "view",
      "type": "function"
    },
    {
      "inputs": [],
      "name": "symbol",
      "outputs": [
        {
          "internalType": "string",
          "name": "",
          "type": "string"
        }
      ],
      "stateMutability": "view",
      "type": "function"
    },
    {
      "inputs": [
        {
          "internalType": "uint256",
          "name": "",
          "type": "uint256"
        }
      ],
      "name": "tokenLevels",
      "outputs": [
        {
          "internalType": "uint256",
          "name": "",
          "type": "uint256"
        }
      ],
      "stateMutability": "view",
      "type": "function"
    },
    {
      "inputs": [
        {
          "internalType": "uint256",
          "name": "tokenId",
          "type": "uint256"
        }
      ],
      "name": "uri",
      "outputs": [
        {
          "internalType": "string",
          "name": "",
          "type": "string"
        }
      ],
      "stateMutability": "view",
      "type": "function"
    }
  ],
  "bytecode": {
    "object": "0x608060405260038054600160201b600160601b031916660186a0000000001790553480156200002d57600080fd5b5060408051602081019091526000815262000048816200004f565b50620001d2565b60026200005d828262000106565b5050565b634e487b7160e01b600052604160045260246000fd5b600181811c908216806200008c57607f821691505b602082108103620000ad57634e487b7160e01b600052602260045260246000fd5b50919050565b601f8211156200010157600081815260208120601f850160051c81016020861015620000dc5750805b601f850160051c820191505b81811015620000fd57828155600101620000e8565b5050505b505050565b81516001600160401b0381111562000122576200012262000061565b6200013a8162000133845462000077565b84620000b3565b602080601f831160018114620001725760008415620001595750858301515b600019600386901b1c1916600185901b178555620000fd565b600085815260208120601f198616915b82811015620001a35788860151825594840194600190910190840162000182565b5085821015620001c25787850151600019600388901b60f8161c191681555b5050505050600190811b01905550565b61326a80620001e26000396000f3fe608060405234801561001057600080fd5b50600436106101ce5760003560e01c806366fabcf311610104578063a22cb465116100a2578063e600d94d11610071578063e600d94d1461043f578063e985e9c51461045f578063f242432a14610472578063f5298aca1461048557600080fd5b8063a22cb465146103dd578063bbd94c2f146103f0578063c4d66de814610419578063de1614341461042c57600080fd5b806370a93b36116100de57806370a93b361461037057806386481d40146103835780638da5cb5b146103a357806395d89b41146103d557600080fd5b806366fabcf3146103375780636dcb111d1461034a578063704802751461035d57600080fd5b80632c54054b11610171578063415de0d71161014b578063415de0d7146102d157806348af6676146102f15780634e1273f414610304578063669f5a511461032457600080fd5b80632c54054b146102985780632dfb9ff0146102ab5780632eb2c2d6146102be57600080fd5b80630e89341c116101ad5780630e89341c146102315780631785f53c146102445780631f7fdffa1461025957806324d7806c1461026c57600080fd5b8062fdd58e146101d357806301ffc9a7146101f957806306fdde031461021c575b600080fd5b6101e66101e13660046126ff565b610498565b6040519081526020015b60405180910390f35b61020c610207366004612742565b6104c0565b60405190151581526020016101f0565b6102246104e5565b6040516101f091906127b6565b61022461023f3660046127c9565b610573565b6102576102523660046127e2565b610706565b005b610257610267366004612940565b61077a565b61020c61027a3660046127e2565b6001600160a01b03166000908152600a602052604090205460ff1690565b6101e66102a63660046129ef565b610bed565b6101e66102b9366004612a3c565b610e41565b6102576102cc366004612a89565b610fd4565b6102e46102df3660046127c9565b61103b565b6040516101f09190612b7c565b6102e46102ff3660046127c9565b611143565b610317610312366004612b8f565b6111c2565b6040516101f09190612c7f565b610257610332366004612c92565b611296565b6101e66103453660046127c9565b611507565b610257610358366004612cb5565b61154c565b61025761036b3660046127e2565b6117c3565b61025761037e366004612cf1565b611835565b6101e66103913660046127c9565b60009081526008602052604090205490565b6003546103bd90600160601b90046001600160a01b031681565b6040516001600160a01b0390911681526020016101f0565b610224611876565b6102576103eb366004612d13565b611883565b6103bd6103fe3660046127c9565b6009602052600090815260409020546001600160a01b031681565b6102576104273660046127e2565b611892565b61025761043a366004612d4f565b6119ef565b6101e661044d3660046127c9565b60086020526000908152604090205481565b61020c61046d366004612d84565b611a2e565b610257610480366004612dae565b611a5c565b610257610493366004612e12565b611abb565b6000818152602081815260408083206001600160a01b03861684529091529020545b92915050565b60006001600160e01b03198216636cdb3d1360e11b14806104ba57506104ba82611af5565b600480546104f290612e45565b80601f016020809104026020016040519081016040528092919081815260200182805461051e90612e45565b801561056b5780601f106105405761010080835404028352916020019161056b565b820191906000526020600020905b81548152906001019060200180831161054e57829003601f168201915b505050505081565b6000818152600b602052604081208054606092919061059190612e45565b90501115610637576000828152600b6020526040902080546105b290612e45565b80601f01602080910402602001604051908101604052809291908181526020018280546105de90612e45565b801561062b5780601f106106005761010080835404028352916020019161062b565b820191906000526020600020905b81548152906001019060200180831161060e57829003601f168201915b50505050509050919050565b60005b60035463ffffffff168110156106fc576000818152600760205260409020546001600160401b031683108015906106a35750600081815260076020526040902054610697906001600160401b03600160801b820481169116612e95565b6001600160401b031683105b156106ea5760008181526007602052604090206001016106c284611b45565b6040516020016106d3929190612ebc565b604051602081830303815290604052915050919050565b806106f481612f50565b91505061063a565b506104ba82611bd7565b600354600160601b90046001600160a01b031633146107595760405162461bcd60e51b815260206004820152600a60248201526927b7363c9037bbb732b960b11b60448201526064015b60405180910390fd5b6001600160a01b03166000908152600a60205260409020805460ff19169055565b336000908152600a602052604090205460ff166107a95760405162461bcd60e51b815260040161075090612f69565b6001600160a01b0384166108125760405162461bcd60e51b815260206004820152602a60248201527f45524331313535436c6f6e6561626c653a206d696e7420746f20746865207a65604482015269726f206164647265737360b01b6064820152608401610750565b81518351146108775760405162461bcd60e51b815260206004820152602b60248201527f4d69736d61746368206265747765656e207479706549647320616e6420616d6f60448201526a0eadce8e640d8cadccee8d60ab1b6064820152608401610750565b600083516001600160401b03811115610892576108926127fd565b6040519080825280602002602001820160405280156108bb578160200160208202803683370190505b50905060005b8451811015610bd9576000600660008784815181106108e2576108e2612f8d565b6020908102919091018101518252810191909152604001600020546001600160401b03161115610ad6576006600086838151811061092257610922612f8d565b6020026020010151815260200190815260200160002060000160009054906101000a90046001600160401b03166001600160401b031684828151811061096a5761096a612f8d565b60200260200101516006600088858151811061098857610988612f8d565b6020908102919091018101518252810191909152604001600020546109bd9190600160401b90046001600160401b0316612fa3565b1115610a0b5760405162461bcd60e51b815260206004820152601f60248201527f45786365656473206d617820737570706c7920666f7220736f6d6520494473006044820152606401610750565b838181518110610a1d57610a1d612f8d565b602002602001015160066000878481518110610a3b57610a3b612f8d565b6020026020010151815260200190815260200160002060000160088282829054906101000a90046001600160401b0316610a759190612e95565b92506101000a8154816001600160401b0302191690836001600160401b03160217905550848181518110610aab57610aab612f8d565b6020026020010151828281518110610ac557610ac5612f8d565b602002602001018181525050610bc7565b600060076000878481518110610aee57610aee612f8d565b602090810291909101810151825281019190915260400160002054600160801b90046001600160401b03161115610b7057610b5c858281518110610b3457610b34612f8d565b602002602001015187868481518110610b4f57610b4f612f8d565b6020026020010151611be6565b6000848281518110610ac557610ac5612f8d565b60405162461bcd60e51b815260206004820152602660248201527f546f6b656e207479706520646f6573206e6f7420657869737420666f7220736f6044820152656d652049447360d01b6064820152608401610750565b80610bd181612f50565b9150506108c1565b50610be685828585611f16565b5050505050565b336000908152600a602052604081205460ff16610c1c5760405162461bcd60e51b815260040161075090612f69565b6003805463ffffffff16906000610c3283612fb6565b82546101009290920a63ffffffff81810219909316918316021790915516600081815260076020526040902054909150600160801b90046001600160401b031615610cbf5760405162461bcd60e51b815260206004820152601960248201527f546f6b656e207479706520616c726561647920657869737473000000000000006044820152606401610750565b6000826001600160401b031611610d245760405162461bcd60e51b815260206004820152602360248201527f4d6178206d696e7461626c65206d75737420626520677265617465722074686160448201526206e20360ec1b6064820152608401610750565b604051806080016040528083600360048282829054906101000a90046001600160401b0316610d539190612e95565b82546001600160401b039182166101009390930a838102908302199091161790925583526000602080850182905287831660408087019190915260609586018a905287835260078252918290208651815492880151938801518516600160801b0267ffffffffffffffff60801b19948616600160401b026001600160801b03199094169190951617919091179190911691909117815591830151600183019150610dfd908261301f565b50905050807f4f84223d1a19c48d18279cb7ec05f0f49b4e547ab9c2e04ebb54b0eac60c51548385604051610e339291906130de565b60405180910390a292915050565b336000908152600a602052604081205460ff16610e705760405162461bcd60e51b815260040161075090612f69565b6000836001600160401b031611610ed35760405162461bcd60e51b815260206004820152602160248201527f4d617820737570706c79206d7573742062652067726561746572207468616e206044820152600360fc1b6064820152608401610750565b6003805463ffffffff16906000610ee983612fb6565b825463ffffffff9182166101009390930a928302928202191691909117909155604080516080810182526001600160401b03808816825260006020808401828152848601838152606086018b81529890971680845260069092529490912083518154955196518416600160801b0267ffffffffffffffff60801b19978516600160401b026001600160801b0319909716919094161794909417949094161782559251919350906001820190610f9e908261301f565b50905050807fe28e4991719b1a533e2b60fb5ab59fb3c3d1cbc6af8dc954f782a0bf615d200c8484604051610e339291906130de565b336001600160a01b0386168114801590610ff55750610ff38682611a2e565b155b156110265760405163711bec9160e11b81526001600160a01b03808316600483015287166024820152604401610750565b6110338686868686611f4e565b505050505050565b604080516080808201835260008083526020808401829052838501829052606080850181905286835260078252918590208551938401865280546001600160401b038082168652600160401b8204811693860193909352600160801b90049091169483019490945260018401805493949293918401916110ba90612e45565b80601f01602080910402602001604051908101604052809291908181526020018280546110e690612e45565b80156111335780601f1061110857610100808354040283529160200191611133565b820191906000526020600020905b81548152906001019060200180831161111657829003601f168201915b5050505050815250509050919050565b604080516080808201835260008083526020808401829052838501829052606080850181905286835260068252918590208551938401865280546001600160401b038082168652600160401b8204811693860193909352600160801b90049091169483019490945260018401805493949293918401916110ba90612e45565b606081518351146111f35781518351604051635b05999160e01b815260048101929092526024820152604401610750565b600083516001600160401b0381111561120e5761120e6127fd565b604051908082528060200260200182016040528015611237578160200160208202803683370190505b50905060005b845181101561128e5760208082028601015161126190602080840287010151610498565b82828151811061127357611273612f8d565b602090810291909101015261128781612f50565b905061123d565b509392505050565b336000908152600a602052604090205460ff166112c55760405162461bcd60e51b815260040161075090612f69565b6000828152600760209081526040808320815160808101835281546001600160401b038082168352600160401b8204811695830195909552600160801b90049093169183019190915260018101805460608401919061132390612e45565b80601f016020809104026020016040519081016040528092919081815260200182805461134f90612e45565b801561139c5780601f106113715761010080835404028352916020019161139c565b820191906000526020600020905b81548152906001019060200180831161137f57829003601f168201915b5050505050815250509050600081604001516001600160401b0316116113fe5760405162461bcd60e51b8152602060048201526017602482015276139195081d1e5c1948191bd95cc81b9bdd08195e1a5cdd604a1b6044820152606401610750565b600061140984611507565b6040830151835191925061141c91612e95565b6001600160401b03168111156114445760405162461bcd60e51b815260040161075090613100565b600081815260096020908152604080832080546001600160a01b0388166001600160a01b031990911617905586835260078252918290208451815492860151938601516001600160401b03908116600160801b0267ffffffffffffffff60801b19958216600160401b026001600160801b031990951691909216179290921792909216178155606083015183919060018201906114e1908261301f565b509050506115018382600160405180602001604052806000815250611fae565b50505050565b600081815260076020526040812054611532906001600160401b03600160401b820481169116612e95565b61153d906001612e95565b6001600160401b031692915050565b336000908152600a602052604090205460ff1661157b5760405162461bcd60e51b815260040161075090612f69565b6000828152600660209081526040808320815160808101835281546001600160401b038082168352600160401b8204811695830195909552600160801b9004909316918301919091526001810180546060840191906115d990612e45565b80601f016020809104026020016040519081016040528092919081815260200182805461160590612e45565b80156116525780601f1061162757610100808354040283529160200191611652565b820191906000526020600020905b81548152906001019060200180831161163557829003601f168201915b50505050508152505090506000816060015151116116b25760405162461bcd60e51b815260206004820152601960248201527f546f6b656e207479706520646f6573206e6f74206578697374000000000000006044820152606401610750565b81816020018181516116c49190612e95565b6001600160401b03908116909152825160208401519082169116111590506117235760405162461bcd60e51b815260206004820152601260248201527145786365656473206d617820737570706c7960701b6044820152606401610750565b6000838152600660209081526040918290208351815492850151938501516001600160401b03908116600160801b0267ffffffffffffffff60801b19958216600160401b026001600160801b0319909516919092161792909217929092161781556060820151829190600182019061179b908261301f565b509050506115018484846001600160401b031660405180602001604052806000815250611fae565b600354600160601b90046001600160a01b031633146118115760405162461bcd60e51b815260206004820152600a60248201526927b7363c9037bbb732b960b11b6044820152606401610750565b6001600160a01b03166000908152600a60205260409020805460ff19166001179055565b336000908152600a602052604090205460ff166118645760405162461bcd60e51b815260040161075090612f69565b60009182526008602052604090912055565b600580546104f290612e45565b61188e33838361200b565b5050565b7ff0c57e16840df040f15088dc2f81fe391c3923bec73e23a9662efc9c229c6a0e8054600160401b810460ff1615906001600160401b03168180156118e057506001816001600160401b0316105b1580156119025750303b1580156119005750806001600160401b03166001145b155b1561191f5760405162dc149f60e41b815260040160405180910390fd5b825467ffffffffffffffff19166001178355811561194957825460ff60401b1916600160401b1783555b600380546bffffffffffffffffffffffff16600160601b6001600160a01b038716908102919091179091556000908152600a6020526040808220805460ff1990811660019081179092553384529190922080549091169091179055811561150157825460ff60401b19168355604051600181527fc7f505b2f371ae2175ee4913f4499e1f2633a7b5936321eed1cdaeb6115181d29060200160405180910390a150505050565b336000908152600a602052604090205460ff16611a1e5760405162461bcd60e51b815260040161075090612f69565b611a29838383611be6565b505050565b6001600160a01b03918216600090815260016020908152604080832093909416825291909152205460ff1690565b336001600160a01b0386168114801590611a7d5750611a7b8682611a2e565b155b15611aae5760405163711bec9160e11b81526001600160a01b03808316600483015287166024820152604401610750565b61103386868686866120a1565b336000908152600a602052604090205460ff16611aea5760405162461bcd60e51b815260040161075090612f69565b611a29838383612126565b60006001600160e01b03198216636cdb3d1360e11b1480611b2657506001600160e01b031982166303a24d0760e21b145b806104ba57506301ffc9a760e01b6001600160e01b03198316146104ba565b60606000611b528361218e565b60010190506000816001600160401b03811115611b7157611b716127fd565b6040519080825280601f01601f191660200182016040528015611b9b576020820181803683370190505b5090508181016020015b600019016f181899199a1a9b1b9c1cb0b131b232b360811b600a86061a8153600a8504945084611ba557509392505050565b6060600280546105b290612e45565b6000838152600760209081526040808320815160808101835281546001600160401b038082168352600160401b8204811695830195909552600160801b900490931691830191909152600181018054606084019190611c4490612e45565b80601f0160208091040260200160405190810160405280929190818152602001828054611c7090612e45565b8015611cbd5780601f10611c9257610100808354040283529160200191611cbd565b820191906000526020600020905b815481529060010190602001808311611ca057829003601f168201915b5050505050815250509050600081604001516001600160401b031611611d1f5760405162461bcd60e51b8152602060048201526017602482015276139195081d1e5c1948191bd95cc81b9bdd08195e1a5cdd604a1b6044820152606401610750565b80604001516001600160401b03168282602001516001600160401b0316611d469190612fa3565b1115611d645760405162461bcd60e51b815260040161075090613100565b6000826001600160401b03811115611d7e57611d7e6127fd565b604051908082528060200260200182016040528015611da7578160200160208202803683370190505b5090506000836001600160401b03811115611dc457611dc46127fd565b604051908082528060200260200182016040528015611ded578160200160208202803683370190505b5090506000611dfb87611507565b905060005b85811015611e9c5781848281518110611e1b57611e1b612f8d565b6020026020010181815250506001838281518110611e3b57611e3b612f8d565b6020908102919091010152866009600084611e5581612f50565b9550815260200190815260200160002060006101000a8154816001600160a01b0302191690836001600160a01b031602179055508080611e9490612f50565b915050611e00565b5060008781526007602052604090208054869190600890611ece908490600160401b90046001600160401b0316612e95565b92506101000a8154816001600160401b0302191690836001600160401b03160217905550611f0d86848460405180602001604052806000815250611f16565b50505050505050565b6001600160a01b038416611f4057604051632bfa23e760e11b815260006004820152602401610750565b611501600085858585612266565b6001600160a01b038416611f7857604051632bfa23e760e11b815260006004820152602401610750565b6001600160a01b038516611fa157604051626a0d4560e21b815260006004820152602401610750565b610be68585858585612266565b6001600160a01b038416611fd857604051632bfa23e760e11b815260006004820152602401610750565b60408051600180825260208201869052818301908152606082018590526080820190925290611033600087848487612266565b6001600160a01b0382166120345760405162ced3e160e81b815260006004820152602401610750565b6001600160a01b03838116600081815260016020908152604080832094871680845294825291829020805460ff191686151590811790915591519182527f17307eab39ab6107e8899845ad3d59bd9653f200f220920489ca2b5937696c31910160405180910390a3505050565b6001600160a01b0384166120cb57604051632bfa23e760e11b815260006004820152602401610750565b6001600160a01b0385166120f457604051626a0d4560e21b815260006004820152602401610750565b60408051600180825260208201869052818301908152606082018590526080820190925290611f0d8787848487612266565b6001600160a01b03831661214f57604051626a0d4560e21b815260006004820152602401610750565b604080516001808252602082018590528183019081526060820184905260a08201909252600060808201818152919291610be691879185908590612266565b60008072184f03e93ff9f4daa797ed6e38ed64bf6a1f0160401b83106121cd5772184f03e93ff9f4daa797ed6e38ed64bf6a1f0160401b830492506040015b6d04ee2d6d415b85acef810000000083106121f9576d04ee2d6d415b85acef8100000000830492506020015b662386f26fc10000831061221757662386f26fc10000830492506010015b6305f5e100831061222f576305f5e100830492506008015b612710831061224357612710830492506004015b60648310612255576064830492506002015b600a83106104ba5760010192915050565b612272858585856122b9565b6001600160a01b03841615610be657825133906001036122ab57602084810151908401516122a48389898585896124d6565b5050611033565b6110338187878787876125fa565b80518251146122e85781518151604051635b05999160e01b815260048101929092526024820152604401610750565b3360005b83518110156123f7576020818102858101820151908501909101516001600160a01b0388161561239f576000828152602081815260408083206001600160a01b038c16845290915290205481811015612378576040516303dee4c560e01b81526001600160a01b038a166004820152602481018290526044810183905260648101849052608401610750565b6000838152602081815260408083206001600160a01b038d16845290915290209082900390555b6001600160a01b038716156123e4576000828152602081815260408083206001600160a01b038b168452909152812080548392906123de908490612fa3565b90915550505b5050806123f090612f50565b90506122ec565b5082516001036124785760208301516000906020840151909150856001600160a01b0316876001600160a01b0316846001600160a01b03167fc3d58168c5ae7397731d063d5bbf3d657854427343f4c083240f7aacaa2d0f628585604051612469929190918252602082015260400190565b60405180910390a45050610be6565b836001600160a01b0316856001600160a01b0316826001600160a01b03167f4a39dc06d4c0dbc64b70af90fd698a233a518aa5d07e595d983b8c0526c8f7fb86866040516124c7929190613146565b60405180910390a45050505050565b6001600160a01b0384163b156110335760405163f23a6e6160e01b81526001600160a01b0385169063f23a6e619061251a9089908990889088908890600401613174565b6020604051808303816000875af1925050508015612555575060408051601f3d908101601f19168201909252612552918101906131b9565b60015b6125be573d808015612583576040519150601f19603f3d011682016040523d82523d6000602084013e612588565b606091505b5080516000036125b657604051632bfa23e760e11b81526001600160a01b0386166004820152602401610750565b805181602001fd5b6001600160e01b0319811663f23a6e6160e01b14611f0d57604051632bfa23e760e11b81526001600160a01b0386166004820152602401610750565b6001600160a01b0384163b156110335760405163bc197c8160e01b81526001600160a01b0385169063bc197c819061263e90899089908890889088906004016131d6565b6020604051808303816000875af1925050508015612679575060408051601f3d908101601f19168201909252612676918101906131b9565b60015b6126a7573d808015612583576040519150601f19603f3d011682016040523d82523d6000602084013e612588565b6001600160e01b0319811663bc197c8160e01b14611f0d57604051632bfa23e760e11b81526001600160a01b0386166004820152602401610750565b80356001600160a01b03811681146126fa57600080fd5b919050565b6000806040838503121561271257600080fd5b61271b836126e3565b946020939093013593505050565b6001600160e01b03198116811461273f57600080fd5b50565b60006020828403121561275457600080fd5b813561275f81612729565b9392505050565b60005b83811015612781578181015183820152602001612769565b50506000910152565b600081518084526127a2816020860160208601612766565b601f01601f19169290920160200192915050565b60208152600061275f602083018461278a565b6000602082840312156127db57600080fd5b5035919050565b6000602082840312156127f457600080fd5b61275f826126e3565b634e487b7160e01b600052604160045260246000fd5b604051601f8201601f191681016001600160401b038111828210171561283b5761283b6127fd565b604052919050565b60006001600160401b0382111561285c5761285c6127fd565b5060051b60200190565b600082601f83011261287757600080fd5b8135602061288c61288783612843565b612813565b82815260059290921b840181019181810190868411156128ab57600080fd5b8286015b848110156128c657803583529183019183016128af565b509695505050505050565b600082601f8301126128e257600080fd5b81356001600160401b038111156128fb576128fb6127fd565b61290e601f8201601f1916602001612813565b81815284602083860101111561292357600080fd5b816020850160208301376000918101602001919091529392505050565b6000806000806080858703121561295657600080fd5b61295f856126e3565b935060208501356001600160401b038082111561297b57600080fd5b61298788838901612866565b9450604087013591508082111561299d57600080fd5b6129a988838901612866565b935060608701359150808211156129bf57600080fd5b506129cc878288016128d1565b91505092959194509250565b80356001600160401b03811681146126fa57600080fd5b60008060408385031215612a0257600080fd5b82356001600160401b03811115612a1857600080fd5b612a24858286016128d1565b925050612a33602084016129d8565b90509250929050565b60008060408385031215612a4f57600080fd5b612a58836129d8565b915060208301356001600160401b03811115612a7357600080fd5b612a7f858286016128d1565b9150509250929050565b600080600080600060a08688031215612aa157600080fd5b612aaa866126e3565b9450612ab8602087016126e3565b935060408601356001600160401b0380821115612ad457600080fd5b612ae089838a01612866565b94506060880135915080821115612af657600080fd5b612b0289838a01612866565b93506080880135915080821115612b1857600080fd5b50612b25888289016128d1565b9150509295509295909350565b60006001600160401b0380835116845280602084015116602085015280604084015116604085015250606082015160806060850152612b74608085018261278a565b949350505050565b60208152600061275f6020830184612b32565b60008060408385031215612ba257600080fd5b82356001600160401b0380821115612bb957600080fd5b818501915085601f830112612bcd57600080fd5b81356020612bdd61288783612843565b82815260059290921b84018101918181019089841115612bfc57600080fd5b948201945b83861015612c2157612c12866126e3565b82529482019490820190612c01565b96505086013592505080821115612c3757600080fd5b50612a7f85828601612866565b600081518084526020808501945080840160005b83811015612c7457815187529582019590820190600101612c58565b509495945050505050565b60208152600061275f6020830184612c44565b60008060408385031215612ca557600080fd5b82359150612a33602084016126e3565b600080600060608486031215612cca57600080fd5b612cd3846126e3565b925060208401359150612ce8604085016129d8565b90509250925092565b60008060408385031215612d0457600080fd5b50508035926020909101359150565b60008060408385031215612d2657600080fd5b612d2f836126e3565b915060208301358015158114612d4457600080fd5b809150509250929050565b600080600060608486031215612d6457600080fd5b83359250612d74602085016126e3565b9150604084013590509250925092565b60008060408385031215612d9757600080fd5b612da0836126e3565b9150612a33602084016126e3565b600080600080600060a08688031215612dc657600080fd5b612dcf866126e3565b9450612ddd602087016126e3565b9350604086013592506060860135915060808601356001600160401b03811115612e0657600080fd5b612b25888289016128d1565b600080600060608486031215612e2757600080fd5b612e30846126e3565b95602085013595506040909401359392505050565b600181811c90821680612e5957607f821691505b602082108103612e7957634e487b7160e01b600052602260045260246000fd5b50919050565b634e487b7160e01b600052601160045260246000fd5b6001600160401b03818116838216019080821115612eb557612eb5612e7f565b5092915050565b6000808454612eca81612e45565b60018281168015612ee25760018114612ef757612f26565b60ff1984168752821515830287019450612f26565b8860005260208060002060005b85811015612f1d5781548a820152908401908201612f04565b50505082870194505b50602f60f81b845286519250612f428382860160208a01612766565b919092010195945050505050565b600060018201612f6257612f62612e7f565b5060010190565b6020808252600a908201526927b7363c9020b236b4b760b11b604082015260600190565b634e487b7160e01b600052603260045260246000fd5b808201808211156104ba576104ba612e7f565b600063ffffffff808316818103612fcf57612fcf612e7f565b6001019392505050565b601f821115611a2957600081815260208120601f850160051c810160208610156130005750805b601f850160051c820191505b818110156110335782815560010161300c565b81516001600160401b03811115613038576130386127fd565b61304c816130468454612e45565b84612fd9565b602080601f83116001811461308157600084156130695750858301515b600019600386901b1c1916600185901b178555611033565b600085815260208120601f198616915b828110156130b057888601518255948401946001909101908401613091565b50858210156130ce5787850151600019600388901b60f8161c191681555b5050505050600190811b01905550565b6001600160401b0383168152604060208201526000612b74604083018461278a565b60208082526026908201527f45786365656473206d6178206d696e7461626c6520666f722074686973204e4660408201526554207479706560d01b606082015260800190565b6040815260006131596040830185612c44565b828103602084015261316b8185612c44565b95945050505050565b6001600160a01b03868116825285166020820152604081018490526060810183905260a0608082018190526000906131ae9083018461278a565b979650505050505050565b6000602082840312156131cb57600080fd5b815161275f81612729565b6001600160a01b0386811682528516602082015260a06040820181905260009061320290830186612c44565b82810360608401526132148186612c44565b90508281036080840152613228818561278a565b9897505050505050505056fea26469706673582212208ca9844ccf4b7f59a0e4109f6b89c90fcd02692a29560f65a2c2d42e988cf43a64736f6c63430008150033",
    "linkReferences": {}
  },
  "methodIdentifiers": {
    "addAdmin(address)": "70480275",
    "balanceOf(address,uint256)": "00fdd58e",
    "balanceOfBatch(address[],uint256[])": "4e1273f4",
    "burn(address,uint256,uint256)": "f5298aca",
    "createFungibleType(uint64,string)": "2dfb9ff0",
    "createNFTType(string,uint64)": "2c54054b",
    "getFungibleTokenInfo(uint256)": "48af6676",
    "getLevel(uint256)": "86481d40",
    "getNFTokenInfo(uint256)": "415de0d7",
    "getNextTokenIdForType(uint256)": "66fabcf3",
    "initialize(address)": "c4d66de8",
    "isAdmin(address)": "24d7806c",
    "isApprovedForAll(address,address)": "e985e9c5",
    "mintBatch(address,uint256[],uint256[],bytes)": "1f7fdffa",
    "mintFungible(address,uint256,uint64)": "6dcb111d",
    "mintNFT(uint256,address)": "669f5a51",
    "mintNFTs(uint256,address,uint256)": "de161434",
    "name()": "06fdde03",
    "nftOwners(uint256)": "bbd94c2f",
    "owner()": "8da5cb5b",
    "removeAdmin(address)": "1785f53c",
    "safeBatchTransferFrom(address,address,uint256[],uint256[],bytes)": "2eb2c2d6",
    "safeTransferFrom(address,address,uint256,uint256,bytes)": "f242432a",
    "setApprovalForAll(address,bool)": "a22cb465",
    "setLevel(uint256,uint256)": "70a93b36",
    "supportsInterface(bytes4)": "01ffc9a7",
    "symbol()": "95d89b41",
    "tokenLevels(uint256)": "e600d94d",
    "uri(uint256)": "0e89341c"
  },
  "id": 64
}